:020000040800F2
:10000000B8C3022471030008B95F0008754E0008E8
:10001000115D00086D0900081B8400080000000045
:10002000000000000000000000000000B102000815
:100030001D0C0008000000000D0300082D6C0008D6
:100040008F0300088F0300088F0300088F03000848
:100050008F0300088F0300088F0300088F03000838
:100060008F0300088F0300088F0300088F03000828
:100070008F0300088F0300088F0300088F03000818
:100080008F0300088F0300088F0300088F03000808
:100090008F0300088F0300088F0300088F030008F8
:1000A0008F0300088F0300088F0300088F030008E8
:1000B0008F0300088F0300088F0300088F030008D8
:1000C0008F0300088F0300088F0300088F030008C8
:1000D0008F0300088F0300088F030008D5800008F5
:1000E0008F0300088F030008000000008F03000842
:1000F0008F0300088F0300088F0300088F03000898
:100100008F0300088F0300088F0300088F03000887
:100110008D7400088F030008E96D00088F03000844
:100120008F0300088F0300088F0300088F03000867
:100130008F0300088F0300088F0300088F03000857
:1001400000000000000000000000000000000000AF
:100150008F0300088F0300088F0300088F03000837
:100160008F0300088F0300088F0300088F03000827
:100170008F0300088F0300088F0300088F03000817
:100180008F0300088F0300088F0300088F03000807
:100190008F0300088F0300088F0300088F030008F7
:1001A0008F0300088F0300088F0300088F030008E7
:1001B0008F0300088F0300088F0300088F030008D7
:1001C0008F0300088F0300088F0300088F030008C7
:1001D0008F0300088F0300088F0300088F030008B7
:1001E0008F0300088F0300088F0300088F030008A7
:1001F0008F0300088F0300088F0300088F03000897
:100200008F0300088F0300088F0300088F03000886
:100210008F0300088F0300088F0300088F03000876
:100220008F0300088F0300088F0300080000000000
:100230008F0300088F030008000000008F030008F0
:100240008F0300088F0300088F0300088F03000846
:100250008F0300088F0300088F0300088F03000836
:100260008F0300088F0300088F0300088F03000826
:100270008F0300088F0300088F03000800000000B0
:100280008F0300088F0300088F03000800000000A0
:10029000000000008F030008DFF810D000F0C8FA5B
:1002A00000480047AD9F0008AFF30080B8C30224A8
:1002B0002C4B19680868B0E8F04F80F30988BFF349
:1002C0006F8F4FF0000080F311887047000000002E
:1002D00008480068006880F308884FF0000080F349
:1002E000148862B661B6BFF34F8FBFF36F8F00DF24
:1002F00000BF00BF08ED00E0DFF80C00016841F42A
:1003000070010160704700BF88ED00E0EFF30980E5
:10031000BFF36F8F134B1A681EF0100F08BF20ED4C
:10032000108A20E9F04F106009B44FF0500080F3BC
:100330001188BFF34F8FBFF36F8F0BF007FA4FF0A9
:10034000000080F3118809BC19680868B0E8F04F14
:100350001EF0100F08BFB0EC108A80F30988BFF3BD
:100360006F8F7047BC000024EFF3058070470000DA
:10037000074880470748804707480047FEE7FEE7F1
:10038000FEE7FEE7FEE7FEE7FEE7FEE7FEE7FEE745
:10039000250C0008F16C0008990200082DE9F05FB7
:1003A0000546002092469B468846064681464024E4
:1003B0001BE0284641464746224600F070F8534667
:1003C0005A46C01A914110D311461846224600F0F1
:1003D00057F82D1A67EB01084F46224601200021ED
:1003E00000F04EF817EB00094E41201EA4F1010465
:1003F000DFDC484631462A464346BDE8F09F40EAE6
:1004000001039B0703D009E008C9121F08C0042A92
:10041000FAD203E011F8013B00F8013B521EF9D279
:100420007047D2B201E000F8012B491EFBD27047A1
:100430000022F6E710B513460A4604461946FFF7B0
:10044000F0FF204610BD421C10F8011B0029FBD113
:10045000801A704730B50B46014600202022012447
:1004600009E021FA02F59D4205D303FA02F5491B82
:1004700004FA02F52844151EA2F10102F1DC30BD98
:10048000202A04DB203A00FA02F100207047914054
:10049000C2F1200320FA03F3194390407047202A49
:1004A00004DB203A21FA02F00021704721FA02F31E
:1004B000D040C2F1200291400843194670472DE90F
:1004C000FE4F804681EA0300C00F0C46009021F0E9
:1004D000004123F00045B8EB0200A94105D2404697
:1004E000214690461C460B46024623F0004010432E
:1004F00047D0270DC7F30A00C3F30A510290401AF0
:10050000019040286BDAC3F3130040F4801B00987D
:10051000924620B10023D2EB030A63EB0B0B019848
:100520005946C0F140025046FFF7AAFF06460D4665
:1005300050465946019A00F08DF910EB08006141D0
:10054000002487EA115284EAE7731A4340D0009AE4
:1005500062B3019A012A4FEA075215DC001B61EBD6
:1005600002014FF0004202EA0752CDE90042001CAE
:1005700041F5801132462B4600F08DF903B0BDE8FD
:10058000F08F40462146F9E7001B61EB0201001C99
:1005900041F5801300185B412018A2F5001747EBC6
:1005A000030140EAD570B6196D4111E06D084FEABC
:1005B000360645EAC0754FEA0752001B61EB02019F
:1005C000001C41F5801149084FEA300000195141E3
:1005D00032462B4603B0BDE8F04F00F04DB900980D
:1005E000012240000023D0EB020263EBE07300988D
:1005F00021464FEAE074B8EB000061EB0401E9E743
:1006000083F000435BE781F0004158E72DE9FE4F9E
:1006100081EA030404F0004421F0004100944FF00B
:10062000000B23F0004350EA01045ED052EA0304B9
:100630005BD0C3F30A54C1F30A552C44A4F2F3343B
:100640000194A0FB0254C1F3130141F48011C3F3E0
:10065000130343F4801301FB024400FB034E840A9E
:10066000970A44EA815447EA8357A4FB0768029536
:100670008D0A05FB07854FEA932C04FB0C542705D4
:10068000029D4FEA065847EA1637B5EB08056EEBB0
:10069000070C870E920E47EA811742EA8312A7FBE6
:1006A0000201B6EB0B0164EB00042B0D43EA0C33A3
:1006B0005E1844EB1C50DA465146E7FB0201C5F3D5
:1006C00013044FEA0B3343EA14534FEA0432019CFC
:1006D00043EA0603A4F10C040294009CCDE900B4A3
:1006E00000F0D9F803B0BDE8F08F00200146F9E72B
:1006F0002DE9F04D81EA030404F0004B21F00045A0
:1007000014464FF0000A23F0004150EA050220D0C1
:1007100054EA01021DD0C5F30A570246C5F313037C
:10072000C1F31300C1F30A5640F4801543F480135B
:10073000A7EB0608101BD64608F2FD3873EB050040
:1007400002D308F1010801E092185B41B8F1000FF3
:1007500003DA00200146BDE8F08D00204FF480113F
:10076000064684460EE0171B73EB050705D3121BE4
:1007700063EB050306434CEA010C49084FEA3000DD
:1007800092185B4150EA0107EDD152EA030012D002
:1007900082EA040083EA0501084305D0101BAB413F
:1007A00006D20122002306E000224FF0004302E0BF
:1007B0006FF0010253101AEB06004CEB085110EBDE
:1007C0000A0041EB0B01BDE8F04D00F055B8C1F354
:1007D0000A52C1F3130140F2FF3341F480119A42EF
:1007E00002DA00200146704740F233439A42A2F2F7
:1007F000334202DC5242FFF752BEFFF741BE000017
:1008000030B5041E71F1000404DB4FF00044404297
:1008100064EB0101141E73F1000405DB1C464FF06C
:100820000043524263EB0403994208BF904230BD3B
:10083000064C074D06E0E06840F0010394E807002D
:1008400098471034AC42F6D3FFF72AFD0CD30008CA
:100850002CD30008202A06DBCB17203A41FA02F0FD
:1008600043EAE07306E041FA02F3D040C2F120020D
:10087000914008431946704710B5141E73F10004E7
:1008800008DA401C41F1000192185B411A4301D182
:1008900020F0010010BD2DE9F04D92469B4611B1AC
:1008A000B1FA81F202E0B0FA80F220329046FFF70E
:1008B000E7FD04460F4640EA0A0041EA0B015346B1
:1008C0005A46084313D0114653EA010019D0C8F123
:1008D00040025046FFF7E3FD05460E465046594696
:1008E0004246FFF7CDFD084305D0012004E0204635
:1008F0003946BDE8F08D0020054346EAE0762C43FA
:1009000037430A986305E40AA0EB08000022FD0AB9
:1009100044EA47540A3002D500200146E9E70105C0
:1009200010196941DDE9084500196941BDE8F04D3C
:10093000A2E730B58C1810F8012B12F00F0301D18B
:1009400010F8013B120906D110F8012B03E010F852
:10095000015B01F8015B5B1EF9D101E001F8013B8D
:10096000521EFBD1A142E6D3002030BDFEE70000BD
:1009700010B50F4C01202DED028B6076002007F0A2
:1009800073FD0120B0EE408A07F06EFDF0EE400AE4
:10099000084838EE200AF6EE000A20EE200A84ED20
:1009A000000A90ED000A84ED010ABDEC028B10BD37
:1009B000440100247800002410B50D4C9FED0D0A71
:1009C000207EF0EE400A78B9D4ED030A94ED010AD6
:1009D00004F11C0005F088FC94ED021AF0EE400AC8
:1009E00031EE600A71EE200ABDE8104007F048BD04
:1009F00044010024000000001748DFED181A1849D0
:100A000090ED041A00EE201A80ED041AB5EEC01A1B
:100A1000F1EE10FA90ED052A00EE202A80ED052A6D
:100A200008D231EE210A80ED040AB1F87820521E76
:100A3000A1F8782090ED040A0A4B10EE102A9A4291
:100A400008DB30EE610A80ED040AB1F87800401C42
:100A5000A1F8780070470000440100240000B4436E
:100A6000880100240000B44370B53A4C01253A4E89
:100A70002DED028B20789FED398A022850D0032873
:100A80004ED0042836D136489FED361AD4ED1F1AC1
:100A900090ED040AB4F97800334900EE900AF8EEBC
:100AA000E00A00EE810A30EE610A84ED0E0AD4ED10
:100AB0000D0A30EE600AB0EEC00A10EE100A88424D
:100AC00009DAB0EE480A84F88450B0EE401AF0EE2D
:100AD000400A05F0EFFFD4ED0E0A94ED0D1A94EDE7
:100AE000200A70EEC10AF0EEE00AF4EEC00AF1EE60
:100AF00010FA12D3BDEC028B70BD00BF94ED020A58
:100B0000D4ED010A94ED1C1A30EE600AB0EEC00A72
:100B1000B4EEC10AF1EE10FAECD284F88550E9E7A0
:100B200008F0B6FE94ED020AD4ED010A30EE600A38
:100B3000B0EEC00A10EE100AB042DFDCB0EE480A98
:100B400084F88450B0EE401AF0EE400A05F0B2FF8F
:100B5000D4E70000880100240000204100000000CC
:100B6000440100240000B4430000404010B5274C6D
:100B700021462DED028B01F10C0022789FED248A95
:100B800091ED020AD1ED010A022A08D0032A0FD002
:100B9000042A20D0B0EE480AF0EE400A2FE005F01B
:100BA000A3FBD4ED1B0A30EE200AF0EE480A26E043
:100BB00005F09AFB94ED1B2AD4ED191AD4ED1A0A0C
:100BC00030EE020A9FED131A61EE801A81EEA02A20
:100BD00062EE010A13E00D48D4ED0D0A3C3094EDAD
:100BE0000E0A05F081FBF0EE400ADFED0B1AB0EEC5
:100BF000E01A94ED1D0A21EE211A21EE000ABDEC47
:100C0000028BBDE8104005F003BF000088010024FE
:100C100000000000E12E654235FA8E3C704772B646
:100C2000FEE70000054805490839026842F0020263
:100C3000026008688004FCD5704700000C48025828
:100C40002DE9F84F044600F02DFC00903CB194F8DB
:100C50003500022806D0802161650020E4E00120F3
:100C6000BDE8F88FC74DC74EC649183520683036E5
:100C7000DFF81483DFF814938842DFF814A3DFF859
:100C800014B32ED0A8422CD0B0422AD0404528D050
:100C9000484526D0504524D0584522D0BD4A183268
:100CA00090421ED0BC4A90421BD0BB4A18329042A0
:100CB00017D0B94A3032904213D0B74A48329042E6
:100CC0000FD0B54A603290420BD0B34A783290428E
:100CD00007D0B14A9032904203D0AF4AA832904236
:100CE00009D1026822F01E0202602068426922F0E7
:100CF0008002426103E0026822F00E02026027686F
:100D00008F4238464DD0A8424BD0B04249D04045E2
:100D100047D0484545D0504543D0584541D09D4ADD
:100D2000183290423DD09C4A90423AD09A4A1832AA
:100D3000904236D0984A3032904232D0964A483269
:100D400090422ED0944A603290422AD0924A783211
:100D5000904226D0904A9032904222D08E4AA832B9
:100D600090421ED08D4A90421BD08C4A1432904241
:100D700017D08A4A2832904213D0884A3C32904297
:100D80000FD0864A503290420BD0844A643290424F
:100D900007D0824A7832904203D0804A8C32974200
:100DA00004D1206E026822F48072026075492068C6
:100DB000884228D0A84226D0B04224D0404522D034
:100DC000484520D050451ED058451CD07149183197
:100DD000884218D07049884215D06F49183188422E
:100DE00011D06D49303188420DD06B49483188426D
:100DF00009D069496031884205D067497831884215
:100E000001D065499031016821F0010101600EE0D7
:100E100000F048FB0099401A052808D92022626595
:100E20000321002084F8351084F8340017E738686F
:100E3000C007EDD1534A0121206890422ED0A8422C
:100E40002CD0B0422AD0404528D0484526D0504525
:100E500024D0584522D04F4B183398421ED04E4BC9
:100E600098421BD04C4B1833984217D04A4B303322
:100E7000984213D0484B483398420FD0464B6033CA
:100E800098420BD0444B7833984207D0424B903372
:100E9000984203D0404BA833984208D194F85C7034
:100EA0003F23A06D07F01F07BB40836007E094F865
:100EB0005C30A06D03F01F0301FA03F34360206868
:100EC00090424DD0A8424BD0B04249D0404547D087
:100ED000484545D0504543D0584541D02D4A183259
:100EE00090423DD02C4A90423AD02B4A1832904240
:100EF00036D0294A3032904232D0274A4832904286
:100F00002ED0254A603290422AD0234A783290422D
:100F100026D0214A9032904222D01F4AA8329042D5
:100F20001ED01E4A90421BD01C4A1432904217D049
:100F30001A4A2832904213D0184A3C3290420FD0BD
:100F4000164A503290420BD0144A6432904207D075
:100F5000124A7832904203D0104A8C3290420BD120
:100F6000D4E919024260E06E30B1026822F4807266
:100F70000260D4E91C024260002084F8351084F835
:100F800034006DE61000024058000240700002403C
:100F900088000240A0000240100402400854025899
:100FA0002DE9F05F28B190F83510022904D0802196
:100FB00041650120BDE8F09F904C904B0168183CC2
:100FC00018338E4ADFF83C92A1428D4CDFF838E2AC
:100FD0008E4FDFF83CB2DFF83CA28F4D8F4E31D000
:100FE00091422FD099422DD0A1422BD0494529D0F2
:100FF000714527D0B94225D0DFF810C20CF1180C8A
:1010000061451FD0DFF808C2ACF1600C614519D012
:10101000DFF8FCC1ACF1480C614513D0DFF8F0C13A
:10102000ACF1300C61450DD0DFF8E4C1ACF1180C27
:10103000614507D0594505D0514503D0A94201D09B
:10104000B1422CD1DFF8B4C14FF0040880F83580EC
:10105000ACF1180C61451DD091421BD0994219D0BA
:10106000A14217D0494515D0714513D0B94211D0CE
:101070006648183081420DD065486038814209D0F9
:1010800063484838814205D061483038814201D0F8
:101090005F481838086820F001000860ABE0D1F81C
:1010A00000C02CF00E08DFF854C1C1F80080ACF18C
:1010B000180C0168614527D0914225D0994223D070
:1010C000A14221D049451FD071451DD0B9421BD046
:1010D000DFF838C10CF1180C614515D0DFF830C1CC
:1010E000ACF1600C61450FD0DFF824C1ACF1480CC5
:1010F000614509D0DFF818C1ACF1300C614503D06F
:10110000DFF80CC1ACF1180CD1F800C02CF0010CC8
:10111000C1F800C0DFF8E4804FF0010C0168A8F1CD
:101120001808414546D0914244D0994242D0A1424C
:1011300040D049453ED071453CD0B9423AD0334ABF
:101140001832914236D0324A603A914232D0304A17
:10115000483A91422ED02E4A303A91422AD02C4A17
:10116000183A914226D0594524D0514522D0A9425F
:1011700020D0B1421ED02A4A91421BD0284A1432B4
:10118000914217D0264A2832914213D0244A3C3249
:1011900091420FD0224A503291420BD0204A643201
:1011A000914207D01E4A7832914203D01C4A8C32B9
:1011B000914218D1016E0A6822F480720A6090F898
:1011C0005C20816D02F01F020CFA02F24A60D0E945
:1011D00019124A60C16E31B10A6822F480720A6045
:1011E000D0E91C124A600022016D80F835C080F8F9
:1011F000342001B188470020DCE6000028000240CE
:10120000580002407000024088000240A0000240E6
:101210007004024088040240A0040240B804024066
:101220000854025870B5044600F03CF90546601CAD
:1012300002D004480078044400F034F9401BA04276
:10124000FAD370BDA80000242DE9F84F03247D4D8A
:1012500000234FF001094FF0B04B4FF00F0AE9E0C7
:1012600009FA03F73A4076D00E7906F00306012E0C
:1012700001D0022E18D1D0F808C04FEA430ECE6834
:1012800004FA0EF82CEA080C06FA0EF646EA0C06EA
:101290008660D0F804C00E792CEA070CC6F300165D
:1012A0009E4046EA0C0646600E79F643B6070BD020
:1012B000C6684FEA43088F6804FA08FC26EA0C0661
:1012C00007FA08F73743C7600E7906F00306022EC7
:1012D00012D1DE080F694FEA437C00EB8606B64662
:1012E000366A4FEADC6C0AFA0CF807FA0CF726EAC1
:1012F00008063743CEF820700F7906684FEA430896
:1013000007F0030704FA08FC07FA08F726EA0C06B8
:10131000374307604E6816F4403F1CD04A4E37688A
:1013200047F00207376036689F0706F0020600960E
:1013300023F0030606F1B046B6463F0FD6F8086420
:10134000DFF808810AFA07FC404526EA0C0603D1BB
:101350004FF0000C41E06CE0DFF8F4C0604502D1D2
:101360004FF0010C39E0DFF8ECC0604502D14FF0DE
:10137000020C32E0DFF8E0C0604502D14FF0030C10
:101380002BE0DFF8D8C0604502D14FF0040C24E018
:10139000DFF8CCC0604502D14FF0050C1DE0DFF84E
:1013A000C4C0604502D14FF0060C16E0DFF8B8C0AB
:1013B000604502D14FF0070C0FE0DFF8B0C0604588
:1013C00002D14FF0080C08E0DFF8A4C0604502D15C
:1013D0004FF0090C01E04FF00A0C0CFA07FC4CEA44
:1013E000060CCEF808C44F68DBF80060FF0226EA5E
:1013F000020600D516435F46CBF80060D1F804C062
:10140000DBF804605FEA8C2C26EA020600D516435E
:101410007E606E684F6826EA0206BF0300D5164359
:101420006E602E684F6826EA0206FF0300D5164359
:101430002E605B1C0A6832FA03F67FF411AFBDE838
:10144000F88F000080000058F44402580000025851
:101450000004025800080258000C025800100258FC
:101460000014025800180258001C025800200258AC
:10147000002402580069084000D0012070474269EA
:1014800021EA02030A4043EA0241816170470AB13E
:10149000816170470904FBE701480068000C704750
:1014A0000010005C0148806870470000A80000241C
:1014B000024881680278114481607047A8000024C6
:1014C000032010B500F0D8F801F068FB0F4A10496E
:1014D00014681368C4F3032203F00F038A5CC95C29
:1014E00002F01F0201F01F01D0400A4A20FA01F168
:1014F0001160094908600F2000F010F808B10120C0
:1015000010BD00F079F8002010BD0000184402580A
:1015100064D10008B8000024B400002470B50D4D5B
:1015200004462878A0B14FF47A71B1FBF0F00A4973
:101530000968B1FBF0F002F0F1FA48B9102C07D2BB
:1015400000222146501E00F077F800206C6070BD2C
:10155000012070BDA8000024B4000024154BF0B594
:10156000083B427813491A600B680A1F23F00103F5
:101570000B6043681360057BC67A827A437B2D0734
:10158000847B45EA0665C77B90F809C0067A90F827
:1015900000E045EAC24040EA834040EA444040EA75
:1015A000074040EA0C2040EA460040EA0E0008608E
:1015B000F0BD0000A0ED00E0BFF35F8F0448002104
:1015C0000368034A23F4803303607032116070476C
:1015D00024ED00E0074A40F0010006497032106037
:1015E000086840F480300860BFF34F8FBFF36F8FFF
:1015F0007047000024ED00E0074882B0016841F028
:1016000002010160006800220F2100F0020000903A
:10161000901E02B000F010B8F4440258002809DB14
:10162000410900F01F028900012001F1E0219040F2
:10163000C1F80001704700000E4BF0B41B680D4666
:10164000C3F30223C3F10706042E00D90426191D93
:10165000072901D2002300E0DB1E012404FA06F171
:101660009C40491E2940641E994014402143F0BC0F
:1016700006F036BF0CED00E0064900F0070210B599
:101680004FF6FF040868044B204040EA022018434C
:10169000086010BD0CED00E00000FA0501680123B0
:1016A000C0F8D834002280F8CC248869044A40F07D
:1016B00000608861486D1043486500207047000055
:1016C00003000010F8B5040004D094F89504002538
:1016D00010B106E00120F8BD204684F8945400F0D3
:1016E00057F8032084F89504206806F027FE207C34
:1016F0008DF8000094E80F0006F0F2FC0226B0BB63
:101700002068002106F05AFE88BB002001270CE06B
:1017100000EBC001421C04EB81014F750D76CD61D9
:101720000D624D620875C885D0B221798142EFD82B
:10173000002011E000EBC001421C04EB810181F8A4
:10174000555281F85852C1F85C52C1F86052C1F844
:10175000645281F85402D0B221798142EAD8207CC7
:101760008DF8000094E80F0006F032FD10B184F807
:101770009564AFE7207B657484F89574012802D1E5
:101780002046FFF78BFF206806F014FD0020F8BD0F
:1017900010B5B6B00446142130A8FEF749FEC021AA
:1017A0006846FEF745FE1B492068884230D100207C
:1017B0004FF480214FF440122292CDE90010684688
:1017C00000F098FB08B1FFF72AFA00F053F812482E
:1017D000016841F00101016000680A23022200F063
:1017E0000100359000204FF4C051309130A9CDE96F
:1017F0003120CDE933030948FFF726FD06480838B4
:10180000016841F000610160006800F000603590FF
:1018100036B010BD00000840E044025800000258F5
:10182000134970B50A68D243520705D5096801F01B
:101830000701814213D118E00A6822F0070202432F
:101840000A60FFF72FFE0A4D4FF47A760446083DF2
:1018500007E000BFFFF726FE001BB04201D90120C0
:1018600070BD2868C0438004F4D4002070BD00001F
:101870000C4802580248016841F0807101607047CD
:101880000C4802582DE9F84F1E4615468A46044674
:10189000FFF708FE814694F8400001280ED001278A
:1018A0004FF0000884F8407094F84100012807D0F8
:1018B0005FF0020084F84080BDE8F88F0220FBE76B
:1018C0004221C4F8448084F84110002220214B4674
:1018D0002046009604F0C6FE0028EBD12168286857
:1018E00088622168686848622168A868C8622068C0
:1018F0002969026822F4400242F480021143016027
:10190000E9684FF000622046CAF82810514604F0FA
:1019100021FD01224B4608212046009604F0A2FE3C
:101920000028C7D122680821D16084F84170C1E73E
:101930002DE9F84F17468B460446FFF7B3FD824664
:1019400094F8400001280ED001264FF0000884F8DA
:10195000406094F84100012807D0022584F84080B7
:101960002846BDE8F88F0220FBE74FF00209C4F8D3
:10197000448084F84190002220215346204600975D
:1019800004F070FE0500E9D100225946204604F01B
:10199000E1FCDBF8240058B901225346022120461D
:1019A000009704F05FFE0500D8D12168C1F80C90C3
:1019B00084F84160D2E70000F8B50446FFF772FDF5
:1019C00005461CB194F8410010B107E00120F8BDB4
:1019D000204600F047F841F28830A06420686FF09C
:1019E000FF02A168036802EB012223F4F8511143BE
:1019F0000160A06C002220212B460090204604F0BC
:101A000031FE0028E3D12268D4E907352679E16860
:101A1000176845EA0665DFF844C01943104B2943AF
:101A20000025012607EA0C07394311602268D4E932
:101A30000517B4F810C0D2F804E039430EEA030EDB
:101A40004EEA0C431943516021680A6842F00102D2
:101A50000A60656484F84160F8BD00002FFFFF0054
:101A6000FEF8E0FF2DE9F041B6B00446142130A89D
:101A7000FEF7DEFCC0216846FEF7DAFC3C49206830
:101A8000884271D1002013904FF000710446CDE9D7
:101A90000010684600F02EFA08B1FFF7C0F835488C
:101AA000016841F480410160006800F48040359095
:101AB00030480C30016841F010010160016801F00C
:101AC00010013591016841F002010160016801F0E7
:101AD00002013591016841F008010160016801F0DF
:101AE00008013591016841F004010160006809278F
:101AF0004FF00408CDF8C08000F004000225032652
:101B00003396CDE934701C4830A9CDE93154FFF744
:101B10009BFBCDE9308532AADFF8608030A94046D2
:101B200082E8D000FFF790FB4FF4205032AACDE9B5
:101B30003005134830A982E8D000FFF785FB680222
:101B400032AACDE930050F4830A982E8D000FFF76E
:101B50007BFB0A2132944020CDE93361CDE9300589
:101B600030A94046FFF770FB36B0BDE8F0810000B9
:101B700000500052D4440258001002580004025889
:101B8000000C0258000802582DE9F84F15460E4681
:101B90000446FFF787FC82462068816994F840304C
:101BA00000F12009012B0DD001274FF0000884F827
:101BB000407094F84120012A06D0022084F8408029
:101BC000BDE8F88F0220FBE7C4F84480A6B32222C8
:101BD00084F841200269521CA2630269521C6263AC
:101BE0002663426922F0406242F0806242612068CE
:101BF00081610EE00621204604F034FDC8B999F851
:101C00000000216B0870206B401C2063A06B401EFD
:101C1000A063A06B53464FF0010200950028E9D164
:101C20004FF00201204604F01DFD10B92268022188
:101C3000D16084F84170C1E7FFE7616C012041F099
:101C400008016164BAE7000010B500F061FF0549C2
:101C50000968054AC1F30211515C01F01F01C84037
:101C600010BD00002044025864D10008494930B535
:101C7000484C0B1D0A68143409681D68246802F07A
:101C80000303C5F30012C1F30531C4F3CC040029EA
:101C900014FB02F200EE102AF8EE400A75D03F4A1B
:101CA0009FED3D1AB7EE000A6BB1DFED3D1A012B37
:101CB00001D0022B64D002EE101A1168F8EE422A0D
:101CC00081EEA22A21E0334C283C23689B0612D5E2
:101CD000344B246801EE901A1168C4F3C104F8EE85
:101CE000612AE34001EE903AC1F30801F8EE611A6F
:101CF00081EEA22A0BE001EE901ADFED2B2A00BF45
:101D0000F8EE611A116882EEA12AC1F3080101EE12
:101D1000901A1168F8EE611A40EE811A71EE800A8D
:101D200062EE200AC1F3462101EE101AB8EE411A04
:101D300031EE001AC0EE811ABCEEE11A80ED001AF5
:101D40001168C1F3064101EE101AB8EE411A31EEE6
:101D5000001AC0EE811ABCEEE11A80ED011A11687A
:101D6000C1F3066101EE101AB8EE411A31EE000A15
:101D700080EE801ABCEEC10A80ED020A30BD04E09C
:101D800001EE901ADFED092ABAE7002101604160F7
:101D90008160F3E7284402580000003938440258B3
:101DA0000024744A0090D0030024744C20BCBE4B25
:101DB000494930B5484C0B1D0A681C3409681D6838
:101DC000246802F00303C5F30022C1F30551C4F3F4
:101DD000CC04002914FB02F200EE102AF8EE400AAF
:101DE00075D03F4A9FED3D1AB7EE000A6BB1DFEDAB
:101DF0003D1A012B01D0022B64D002EE101A11689B
:101E0000F8EE422A81EEA22A21E0334C283C2368D6
:101E10009B0612D5344B246801EE901A1168C4F366
:101E2000C104F8EE612AE34001EE903AC1F30801E3
:101E3000F8EE611A81EEA22A0BE001EE901ADFEDB6
:101E40002B2A00BFF8EE611A116882EEA12AC1F3B5
:101E5000080101EE901A1168F8EE611A40EE811A3D
:101E600071EE800A62EE200AC1F3462101EE101ADB
:101E7000B8EE411A31EE001AC0EE811ABCEEE11A3A
:101E800080ED001A1168C1F3064101EE101AB8EE98
:101E9000411A31EE001AC0EE811ABCEEE11A80ED53
:101EA000011A1168C1F3066101EE101AB8EE411A69
:101EB00031EE000A80EE801ABCEEC10A80ED020A03
:101EC00030BD04E001EE901ADFED092ABAE70021E7
:101ED000016041608160F3E7284402580000003946
:101EE000404402580024744A0090D0030024744CEB
:101EF00020BCBE4B2DE9FE4F0546DFF8E48350F8C9
:101F0000081B0024F64FC943019005F1280026461E
:101F100008F12408009008011DD4A86E50B1B0F556
:101F2000801F0CD0B0F5001F0ED0B0F5401F1ED0A2
:101F300001240FE0386840F40030386017E0019861
:101F4000022104F0B3FB03E00098022104F03EFC00
:101F500004000CD026462888C043C00523D4A86DB1
:101F600005281ED2DFE800F00C11161B1B00AA6E1C
:101F7000D8F8001021F440111143C8F80010EAE726
:101F8000386840F40030386009E00198002104F01E
:101F90008DFB03E00098002104F018FC044674B1A6
:101FA00000E0012426462888C043800528D4E86D37
:101FB00080281ED00CDC90B140280ED114E0AA6D10
:101FC000D8F8001021F007011143C8F80010EAE723
:101FD000C02813D0B0F5807F10D001240FE03868FE
:101FE00040F40030386009E00198002104F05EFB05
:101FF00003E00098002104F0E9FB04469CB126466A
:102000002888DFF8DC92C04309F12C0940052CD464
:10201000D5F8A800B0F5800F20D00DDCA0B1B0F548
:10202000001F0FD115E0EA6DD8F8001021F4E0711F
:102030001143C8F80010E3E7B0F5C00F13D0B0F5B6
:10204000000F10D001240FE0386840F400303860F1
:1020500009E00198002104F029FB03E00098002129
:1020600004F0B4FB04467CB126462888C043000532
:102070002DD4D5F8AC00B0F1007F21D00EDCA8B192
:10208000B0F1807F10D116E0D5F8A820D9F8001063
:1020900021F460011143C9F80010E6E7B0F1407F78
:1020A00013D0B0F1806F10D001240FE0386840F4F5
:1020B0000030386009E00198002104F0F7FA03E0ED
:1020C0000098002104F082FB044674B1264628687B
:1020D000C04380011FD4E86CD8B110280FD020284D
:1020E00012D0302815D0012414E0D5F8AC20D9F84E
:1020F000001021F0E0611143C9F80010E7E73868EB
:1021000040F40030386004E00198022104F0CEFA77
:10211000044674B126462888C043C0042BD4286ED8
:10212000B0F5005F20D00DDCA0B1B0F5805F0FD11D
:1021300015E06B48EA6C2030016821F03001114352
:102140000160E8E7B0F5405F13D0B0F5804F10D0E4
:1021500001240FE0386840F40030386009E001984D
:10216000002104F0A3FA03E00098002104F02EFB04
:1021700004468CB126462888C043800429D4686E62
:10218000B0F5403F23D010DC08B3B0F5803F14D049
:10219000B0F5003F0FD115E02A6ED8F8001021F4F9
:1021A000E0411143C8F80010E5E7B0F5802F0ED0EC
:1021B000B0F5A02F0BD001240AE00198012104F012
:1021C00075FA03E00098012104F000FB044694B185
:1021D00026462888C04340042AD4D5F8B000B0F180
:1021E000405F23D010DC08B3B0F1805F14D0B0F1B1
:1021F000005F0FD115E06A6ED8F8001021F4E021DD
:102200001143C8F80010E4E7B0F1804F0ED0B0F1F0
:10221000A04F0BD001240AE00198012104F046FAF6
:1022200003E00098012104F0D1FA044674B1264677
:102230002888C04300041FD4286FD8B1B0F1805F54
:102240000ED0B0F1005F10D0012414E0D5F8B0201A
:10225000D9F8001021F0E0411143C9F80010E7E778
:10226000386840F40030386004E00198012104F03F
:102270001DFA044674B126462868C043C0011ED426
:10228000A86CD0B101280ED0022811D0032814D098
:10229000012413E02A6FD8F8001021F040511143B7
:1022A000C8F80010E8E7386840F40030386004E00F
:1022B0000198022104F0FAF90446ACB126462868D8
:1022C000DFF81CB0C043ABF11C0B400252D40548F0
:1022D000016841F480710160FFF7E4F8824611E083
:1022E0002C44025800480258FA48AA6C016821F0B0
:1022F000030111430160E2E7FFF7D4F8A0EB0A0005
:10230000642835D8F4480068C005F5D58CBBDFF8E3
:10231000C4A3B5F8B4100AF1240ADAF8000001F4F5
:10232000407100F44070884211D0DAF80010DAF8F9
:10233000002021F4407142F48032CAF80020DAF81B
:10234000002022F48032CAF80020CAF80010D5F824
:10235000B400B0F5807F1AD1FFF7A4F8029012E024
:10236000FFF7A0F80299411A41F2883081420AD958
:10237000032426462878DFF85CA3C0430AF1080A44
:10238000C00721D03CE0DAF800008007E8D5D5F896
:10239000B410C1F30120032858460DD0016821F480
:1023A0007C510160B5F8B420DAF80010C2F30B02DA
:1023B0001143CAF80010DDE7C84A036802EA1112A7
:1023C00023F47C511143ECE7E86F182816D005DCA4
:1023D000A0B1082808D0102804D10AE020280DD088
:1023E00028280BD001240AE00198012104F05EF9AD
:1023F00003E00098012104F0E9F9044664B126469F
:102400002878C04380071ED4A86F062819D2DFE8B9
:1024100000F0160C11161616EA6FDAF8001021F00B
:1024200038011143CAF80010EAE70198012104F0CD
:102430003DF903E00098012104F0C8F904467CB19D
:1024400000E0012426462878C04340071FD4D5F871
:102450009400062819D2DFE800F0160C11161616A3
:10246000AA6FDAF8001021F007011143CAF8001032
:10247000E9E70198012104F019F903E0009801212E
:1024800004F0A4F90446A4B100E00124264628780B
:10249000C04380062BD4D5F89000B0F1405F24D023
:1024A00011DC10B3B0F1805F15D0B0F1005F10D136
:1024B00016E0D5F89420D9F8001021F00701114357
:1024C000C9F80010E3E7B0F1804F0ED0B0F1A04F93
:1024D0000BD001240AE00198002104F0E7F803E0A2
:1024E0000098022104F072F9044694B12646287837
:1024F000C04340062BD4D5F89C00B0F5406F24D0E3
:1025000011DC10B3B0F5806F15D0B0F5006F10D1AD
:1025100016E0D5F89020DAF8001021F0E0411143E0
:10252000CAF80010E3E7B0F5805F0ED0B0F5A05F09
:102530000BD001240AE00198002104F0B7F803E071
:102540000098022104F042F9044694B12646287806
:10255000C04300062BD4D5F8A000B0F5C04F24D05E
:1025600011DC10B3B0F5005F15D0B0F5804F10D17D
:1025700016E0D5F89C20D9F8001021F4E051114361
:10258000C9F80010E3E7B0F5004F0ED0B0F5204FCA
:102590000BD001240AE00198002104F087F803E041
:1025A0000098022104F012F9044654B12646287816
:1025B000C04300071ED4D5F88400B0F5805F0AD070
:1025C0000FE0D5F8A020D9F8001021F460411143A4
:1025D000C9F80010EBE70098022104F0F7F800B109
:1025E0000126D5F88420DAF8001021F44051114377
:1025F000CAF800102878C043C00613D4D5F8980054
:10260000B0F5807F05D10098022104F0DFF800B119
:102610000126D5F89820D9F8001021F44071114313
:10262000C9F800102868C043000316D4D5F8A400E8
:1026300038B1B0F5803F09D0B0F5003F0BD0012490
:102640000AE00198002104F031F803E0009802212B
:1026500004F0BCF804468CB126462868C043400309
:1026600022D4D5F88800B0F5801F11D0B0F5001F36
:1026700013D0B0F5401F15D0012414E0D5F8A420E4
:10268000D9F8001021F440311143C9F80010E4E7F3
:10269000386840F40030386004E00098012104F00C
:1026A00095F804465CB126462868C043C00323D48D
:1026B000286DA8B1B0F5803F17D001241BE0D5F8F4
:1026C0008820DAF8001021F440111143CAF80010F4
:1026D000EAE700004C44025800480258CFFFFF00D0
:1026E000386840F40030386004E00198022103F0BB
:1026F000DDFF0446E4B126462868C043800005D4C7
:102700000098022104F062F800B101262868C04355
:1027100080031BD4D5F88000B0B1B0F5807F0FD016
:10272000B0F5007F10D0B0F5407F0DD001240CE053
:102730005A482A6D016821F4803111430160DBE7BA
:10274000386840F400303860ECB326462868C0434F
:10275000C00207D46A6FD8F8001021F0004111437D
:10276000C8F800102868C043C00008D4D5F8B820C5
:10277000DBF8001021F480411143CBF800102868E9
:10278000C043800207D4EA6ED8F8001021F08071AF
:102790001143C8F800102868C04340000CD4DBF88F
:1027A000001021F40041CBF80010DBF80010D5F840
:1027B000BC201143CBF800102868C04308D4374828
:1027C0006A6D016800E018E021F04051114301609A
:1027D0002868C043000208D4D5F88C20DAF800102D
:1027E00021F440011143CAF8001028790024C043A5
:1027F00000F0010020430AD00FE0D5F88020DAF87D
:10280000001021F440711143CAF800109EE70198AE
:10281000002103F04BFF00B106462879C04300F0C9
:102820000200204305D10198012103F03FFF00B1D0
:1028300006462879C04300F00400204305D10198E2
:10284000022103F033FF00B106462879C04300F0AF
:102850000800204305D10098002103F0B7FF00B124
:1028600006462879C04300F01000204305D10098A7
:10287000012103F0ABFF00B106462879C04300F008
:102880002000044304D10098022103F09FFF00B907
:1028900016B10120BDE8FE8F0020FBE74C44025832
:1028A000704700002DE9F05F04000F467ED0DFF88E
:1028B0003882D8F8000000F00F00B8420CD2D8F8E7
:1028C000001021F00F013943C8F80010D8F80000BB
:1028D00000F00F00B84269D12078844D40070AD536
:1028E0002069296801F07001884204D9296821F023
:1028F00070010143296020787C4E361D00070AD5FF
:102900006069316801F07001884204D9316821F0B2
:102910007001014331602078C0060AD5A069316892
:1029200001F4E061884204D9316821F4E061014397
:1029300031602078DFF8B4B180060BF1080B0CD5BC
:10294000E1695846DBF8002002F07002914204D998
:10295000026822F070020A430260207880070AD5DC
:10296000E068296801F00F01884204D9296821F044
:102970000F01014329602078C0073ED05B49A2685F
:102980002868183920F470601043286060680228B5
:1029900018D0032819D00968012819D0490700293F
:1029A0004ADADFF848A1AAF1080A00E044E0DAF8C0
:1029B000002022F007020243CAF80020FEF772FD51
:1029C000814612E009688903E9E709688901E6E7B9
:1029D000C905E4E7FEF766FDA0EB090141F2883086
:1029E000814202D90320BDE8F09F6168DAF8000057
:1029F00000F03800B0EBC10FECD1207880070AD589
:102A0000E068296801F00F01884204D2296821F0AA
:102A10000F0101432960D8F80010404601F00F0172
:102A2000B9420BD9016821F00F01394301600068F8
:102A300000F00F00B84201D00120D4E72078400711
:102A40000AD52069296801F07001884204D22968FA
:102A500021F0700101432960207800070AD56069E0
:102A6000316801F07001884204D2316821F07001B0
:102A7000014331602078C0060AD5A069316801F4AD
:102A8000E061884204D2316821F4E06101433160A1
:102A9000207880060CD5E1695846DBF8002002F06A
:102AA0007002914204D2026822F070020A4302606E
:102AB00000F074F80E492A682B68C2F3032203F071
:102AC0000F038A5CC95C02F01F0201F01F01D040B5
:102AD000084A20FA01F111600749086007480068B8
:102AE000BDE8F05FFEF71ABD0020005218440258FE
:102AF00064D10008B8000024B4000024AC00002415
:102B00000248016841F40021016070470044025806
:102B100030B500F043F80B4A0B490C4B15681468AC
:102B2000C5F3032204F00F048A5C095D02F01F0262
:102B300001F01F01D040064A20FA01F1196010602F
:102B4000084630BD1844025864D10008B80000247B
:102B5000B400002400B5FFF7DBFF05490968054A0A
:102B6000C1F30211515C01F01F01C84000BD00001B
:102B70001C44025864D1000800B5FFF7C9FF05499D
:102B80000968054AC1F30221515C01F01F01C840E8
:102B900000BD00001C44025864D10008454970B5CE
:102BA00045480968434B103B11F0380208D0011129
:102BB000082A03D0102A0BD0182A0BD0084670BD63
:102BC00019688906FBD51968C1F3C101C84070BDF9
:102BD0003A4870BD3749374D18310C1D24350A6805
:102BE000096826682D6802F0030406F00102C1F3AB
:102BF0000511C5F3CC0515FB02F200EE102AB8EE64
:102C0000400AE9B32F4ADFED2E0AB7EE001A6CB185
:102C1000DFED2D1A012C01D0022C43D002EE101A48
:102C20001068F8EE422A81EEA22A1EE01C68A40673
:102C300011D51B6801EE901A1168C3F3C103F8EEB9
:102C4000612AD84001EE900AC1F30800F8EE611A3B
:102C500081EEA22A0BE001EE901ADFED1C2A00BFE4
:102C6000F8EE611A106882EEA12AC0F3080001EEA6
:102C7000900AF8EE611A40EE201A31EE810A00E067
:102C800015E022EE000A1068C0F34620401C00EE5A
:102C9000900AF8EE600A80EE201ABCEEC10A10EE2F
:102CA000100A70BD01EE901ADFED092AD8E7002066
:102CB00070BD0000104402580090D00340787D01A0
:102CC00000000039304402580024744A0024744C37
:102CD00020BCBE4B064810B50068400506D5FFF77E
:102CE000DFFD03494FF48060091D086010BD00003E
:102CF000644402582DE9F05F04007DD0FF4F207836
:102D0000FE4D1837DFF8F493103DC00748D0D9F8CE
:102D10000000396800F03800102815D0182803D1B9
:102D200001F0030002280FD06068B0F5803F12D098
:102D300010B1B0F5A02F18D0286820F4803028609A
:102D4000286820F4802009E02868800328D560687E
:102D50000028D2D024E0286840F4803028606068E1
:102D600088B1FEF79FFB064609E0286840F4802002
:102D70002860F0E7FEF796FB801B64286FD8286870
:102D80008003F7D50CE0FEF78DFB064605E000BF9B
:102D9000FEF788FB801B6428F0D828688003F7D4EE
:102DA000207841F20308D54E0C3E800769D5D9F84A
:102DB0000000396810F038000ED0182801D18807BB
:102DC0000AD0E06890B3296821F019010143296015
:102DD000FEF768FB824631E02868400702D5E068CC
:102DE00000288AD0E168286820F01900084328608C
:102DF000FEF758FB824607E0DFE000BFFEF752FB1C
:102E0000A0EB0A000228B9D828684007F6D500BF11
:102E1000FEF742FB40451BD82069402812D031689C
:102E200021F47C3141EA003030602AE018E000BF34
:102E3000FEF738FBA0EB0A0002289FD8286840075D
:102E4000F6D5E5E7306820F47C3040F40030EBE75D
:102E5000207C316821F0FE4141EA0060E4E70DE1A9
:102E6000286820F001002860FEF71CFB824605E080
:102E7000FEF718FBA0EB0A0002288DD8286840074F
:102E8000F6D42078C0065DD5D9F80000DFF86CB222
:102E9000396800F03800ABF1040B082810D018286E
:102EA00003D101F0030001280AD0E0690028286856
:102EB00038D040F080002860FEF7F4FA824623E024
:102EC0002868C00523D5E069802876D11FE0206AF4
:102ED000202821D0316821F0F84141EA806030603B
:102EE00030E000BF94F82010DBF8002022F07C5284
:102EF00042EA0161CBF8001024E000BFFEF7D2FAED
:102F0000A0EB0A00022898D82868C005F6D5FEF77D
:102F1000C3FA4045E6D8DAE7306820F0F84040F0E0
:102F20008040DCE720F080002860FEF7BBFA064610
:102F300005E000BFFEF7B6FA801B02289DD828687E
:102F4000C005F7D42078000729D56C486169643042
:102F500000298046016811D041F001010160FEF7AF
:102F6000A1FA064605E000BFFEF79CFA801B022886
:102F7000C9D8D8F800008007F6D510E021F001018B
:102F80000160FEF78FFA064605E000BFFEF78AFAF9
:102F9000801B022872D8D8F800008007F6D4207869
:102FA000800623D5A0690028286810D040F48050FE
:102FB0002860FEF777FA064605E036E1FEF772FA7A
:102FC000801B02285AD828688004F7D50EE020F428
:102FD00080502860FEF766FA064604E0FEF762FAC3
:102FE000801B02284AD828688004F7D4207840073C
:102FF0004FD5DFF80C81D8F8001041F48071C8F883
:103000000010FEF74FFA064605E000BFFEF74AFA49
:10301000801B642832D8D8F80000C005F6D5374E9A
:10302000A068603601280AD008B1052813D030689E
:1030300020F001003060306820F0040002E03068C9
:1030400040F001003060A06841F2883A90B1FEF78C
:1030500029FA80460AE0306840F004003060EEE76C
:10306000FEF720FAA0EB0801514507D83068800729
:10307000F6D50EE0FEF716FA804607E084E000BFC2
:10308000FEF710FAA0EB080151457DD830688007A3
:10309000F6D4606AB0B3DFF86480D9F8001008F1A4
:1030A00020084FF6F87B08F10409C1F3C201032997
:1030B000A8F1040A69D00228286820F080702860EE
:1030C00003D0FEF7EFF9044684E0FEF7EBF906467D
:1030D00005E000BFFEF7E6F9801B022877D82868D4
:1030E0008001F7D4E26A40F2F331386854F8283F9F
:1030F000884340EA02101843386004E01044025844
:1031000000480258B5E0217B434622894FF4FE0C6B
:10311000208A4FF0FE474902267D521E401EA1F52F
:103120000071C2F308088AB2761E0CEA004042EA37
:1031300008020243504607EA06610A431A60DAF8B9
:10314000002022F00102CAF80020D9F80020266AE7
:1031500022EA0B0242EAC602C9F80020DAF800109F
:10316000A26921F00C011143CAF800100168E2695C
:1031700021F0020111430160016841F480310160D6
:10318000016841F4003101E021E027E001600168BD
:1031900041F480210160016841F00101016028686B
:1031A00040F080702860FEF77DF9044605E000BF1E
:1031B000FEF778F9001B022809D828688001F7D5A6
:1031C00057E000BFFEF76EF9001B022802D903206A
:1031D000BDE8F09F28688001F4D44AE039680128EE
:1031E000D8F8000021D0A26A01F0030393421CD159
:1031F000E26AC1F305118A4217D1216BC0F30802BC
:10320000491E8A4211D1616BC0F34622491E914288
:103210000BD1A16BC0F30642491E914205D1E16B6F
:10322000C0F30660491E814201D00120D0E7A16CA5
:103230004E46D9F80000C0F3CC00814219D0DAF82C
:103240000000554620F00100CAF80000FEF72AF9F8
:103250004FEA0007FEF726F9B842FBD0A26C3068AF
:1032600020EA0B0040EAC2003060286840F001000C
:1032700028600020ACE790F8810070472DE9F04706
:10328000040029D0594A4FF000092068584B594D85
:103290009042C4F8289006D0984204D0A84202D0A8
:1032A000E1680F2918D8E1684FF0010AE76B08318F
:1032B000C9080AEB57167143904205D0984203D0D3
:1032C000A84201D0082907D8904203D0984201D0E3
:1032D000A84204D1102902D90120BDE8F08794F852
:1032E000810020B9204684F8809000F085F8022003
:1032F00084F881002068016821F0010101602068E4
:10330000A1698268B1F1806F02F4F81110D162688E
:10331000B2F5800F01D01AB10AE0A26B22B107E02A
:10332000A26BB2F1805F03D1026842F48052026066
:103330006068400209D5E068072806D32068236D3D
:10334000026822F480721A4303E02068026822F4C3
:1033500080720260A66AE069E26B25683043E36828
:103360000A4310431843A860D4E90D02D4E905814B
:10337000636A25691843D4F820C00A4326681043BD
:103380002843A56DD4E90172D4E9123140EA08005E
:1033900040EA0C0038430843104318432843F060C8
:1033A000606868B92068816821F4C05141F4006107
:1033B00081602068816821F4C06141F4806181608E
:1033C0002068016D21F0010101656068400206D5A9
:1033D0002068626DC16821F000411143C160C4F8EA
:1033E000849084F881A0002077E70000003001403D
:1033F00000380040003C00402DE9F043B7B00446DF
:10340000142130A8FDF714F8C0216846FDF710F824
:103410005549052620680225DFF8488100248842A6
:103420006ED15023CDE9033580270595069580148C
:10343000CDE9077409940021189081468DE8430076
:103440006846FEF757FD08B1FDF7E9FB454808302F
:10345000016841F480410160006800F480403590CB
:10346000D8F8000040F00400C8F80000D8F80000C8
:1034700000F004003590D8F8000040F00200C8F8D1
:103480000000D8F8000000F002003590D8F80000E5
:1034900040F00100C8F80000D8F8000030A93095CD
:1034A00000F00100CDE931543394CDE934602F4868
:1034B000FDF7CAFECDF8C09030A9CDE931542C48B3
:1034C000CDE93346FDF7C0FE4FF400703090CDE9F2
:1034D0003154284830A9CDE93346FDF7B5FE309583
:1034E0000126254D30A9CDE9316428463394FDF7F6
:1034F000ABFE309630A9CDE93164284633942BE0F9
:103500001E4988422AD1411419940020CDE90010A7
:103510006846FEF7EFFC08B1FDF781FB114810305B
:10352000016841F400510160006800F400503590DA
:10353000D8F8000040F01000C8F80000D8F80000EB
:1035400030A900F0100035904FF483503090CDE951
:1035500031540B48CDE93346FDF776FE37B0BDE870
:10356000F0830000E0440258003800400008025890
:1035700000040258000002580024025800340140A0
:10358000001002582DE9F84F994617468A4604461E
:10359000FDF788FF064694F88100012839D1BAF179
:1035A000000F7CD0002FFCD094F88000012830D090
:1035B000A26800254FF0010884F88080032184F878
:1035C0008110C4F88450C4F85CA06566A4F8685003
:1035D000656725672C34B2F5C02FA786E786E58797
:1035E00054F82C0D18D0C16821F4C02141F40031E9
:1035F000C160206841686FF30F0139434160206862
:10360000016841F0010101606068B0F5800F08D0E9
:103610000CE00220BDE8F88F016841F40061016010
:10362000E7E72068016841F400710160E0680F2855
:103630001CD820E02068416989070BD5E16D096835
:103640000162E06D001DE065B4F86200401EA4F860
:1036500062000BE0FDF726FF811B494503D3B9F15A
:10366000FF3F03D09BE0B9F1000F31D0B4F8620006
:103670000028DFD177E007282ED870E02068416964
:1036800089071DD5B4F8621001290DD9E16B59B134
:10369000E16D09680162E06D001DE06500E07CE01D
:1036A000B4F86200801E08E0E16D09880184E06DD5
:1036B000801CE065B4F86200401EA4F862000BE0D4
:1036C000FDF7F0FE811B494503D3B9F1FF3F03D05D
:1036D00065E0B9F1000F62D0B4F862000028CDD1E6
:1036E00041E02068416989072DD5B4F862100329AB
:1036F0000CD9E16B402909D9E16D09680162E06DDF
:10370000001DE065B4F86200001F19E0B4F8621013
:1037100001290BD9E16B49B1E16D09880184E06DA4
:10372000801CE065B4F86200801E09E0E16D097854
:1037300080F82010E06D401CE065B4F86200401E87
:10374000A4F862000BE0FDF7ADFE811B494503D3F1
:10375000B9F1FF3F03D022E0B9F1000F1FD0B4F858
:1037600062000028BDD100224B4608212046009669
:1037700003F02AF928B1D4F8840040F02000C4F8FE
:103780008400204603F0C2F884F88180D4F88400D5
:1037900084F8805000283FF43DAF01203AE72046EE
:1037A00003F0B4F8D4F8841084F8805041F48071A8
:1037B000C4F8841084F8818003202BE72DE9FF4FA3
:1037C0000446C06B81B01D4617464009401C1FFAD5
:1037D00080FBFDF767FE824694F881002E460128A3
:1037E00035D1029800287CD0002FFCD0002DFAD0D3
:1037F00094F8800001282AD04FF0010984F88090C5
:1038000005224FF0000884F88120C4F884806766A0
:10381000A4F86A50A4F868500299E165A4F86250CF
:10382000A4F86050C4F87080C4F874802068C1683F
:1038300021F4C021C160AC492068884205D0AB4961
:10384000884202D0AA49884205D1102704E002200C
:1038500005B0BDE8F08F082741686FF30F012943D9
:1038600041602068016841F0010101606068B0F5C5
:10387000800F04D12068016841F400710160E068A4
:103880000F284CD9BF0838E020684169890710D556
:103890007EB1F119A9420CD9E16D09680162E06DB0
:1038A000001DE065B4F86200401EA4F86200B4F8A0
:1038B00062602068416905B34269D20703D15D4562
:1038C00010D209040ED5006B616E0860606E001D99
:1038D0006066B4F86A00401EA4F86A00B4F86A5042
:1038E0000BE0EEE0FDF7DEFDA0EB0A010E98814251
:1038F00002D3401C01D004E018B156EA0500C3D140
:10390000C6E0204603F002F8D4F8840084F88080F2
:1039100040F48070C4F8840084F88190E0E00728C7
:1039200079D97F084BE020684169890710D57EB1BD
:10393000F119A9420CD9E16D09880184E06D801C60
:10394000E065B4F86200401EA4F86200B4F862605A
:10395000206841691DB34269D20709D0008E616EAB
:103960000880606E801C6066B4F86A00401E12E039
:103970005D4515D20A0413D5008E616E0880606E15
:10398000801C60662168098E0180606E801C606604
:10399000B4F86A00801EA4F86A00B4F86A500EE019
:1039A000012D01D18904D9D4FDF77CFDA0EB0A01DA
:1039B0000E98814202D3401C01D084E060B356EAE5
:1039C0000500B0D164E020684169890711D586B14E
:1039D000F119A9420DD9E16D097880F82010E06D48
:1039E000401CE065B4F86200401EA4F86200B4F820
:1039F00062602068416975B14269D2070DD000BF8D
:103A000090F83000616E0870606E401C6066B4F81B
:103A10006A00401E24E038E055E05D4525D20A04E6
:103A200023D590F83000616E0870606E401C6066AF
:103A3000216891F830100170606E401C606621684A
:103A400091F830100170606E401C6066216891F83A
:103A500030100170606E401C6066B4F86A00001F90
:103A6000A4F86A00B4F86A500FE0042D02D211F4F1
:103A7000C04FC5D1FDF716FDA0EB0A010E9881429B
:103A800002D3401C01D01EE0E8B156EA05009AD1ED
:103A90000E9B002208212046CDF800A002F094FFE2
:103AA00028B1D4F8840040F02000C4F884002046F7
:103AB00002F02CFF84F88190D4F8841084F8808080
:103AC00081B10120C4E6204602F020FFD4F8842012
:103AD00084F8808042F48072C4F8842084F8819055
:103AE0000320B5E60020B3E6003001400038004076
:103AF000003C0040024A136883430B431360704745
:103B00000404005804284FF0E020016903D021F09C
:103B100004010161704741F00401FAE7401EB0F171
:103B2000807F10B501D3012010BD4FF0E02460610B
:103B30000F21601704F0D4FC0020A061072121614F
:103B400010BD704770477047F0B590F83C20012ACF
:103B50003BD01F4E012480F83C40022280F83D20DB
:103B600002681C4D5368B242D2F808C001D0AA4284
:103B700003D14F6823F470033B430F6823F07003B5
:103B80001F4357600268B24213D0B2F1804F10D089
:103B9000114B9A420DD0114B9A420AD0104B9A42C7
:103BA00007D0AA4205D00F4B9A4202D00E4B9A4240
:103BB00004D189682CF0800319439160002180F8BA
:103BC0003D4080F83C100846F0BD0220F0BD0000EA
:103BD00000000140000401400004004000080040D3
:103BE000000C0040001800400040014010B50400E7
:103BF00003D094F83D0010B107E0012010BD002073
:103C000084F83C00204600F023F8022084F83D00B0
:103C10002068211D03F03EF9012084F8480084F853
:103C20003E0084F83F0084F8400084F8410084F8A6
:103C3000420084F8430084F8440084F8450084F886
:103C4000460084F8470084F83D00002010BD0000C5
:103C500008B5114A01681148914211D1016841F03B
:103C60001001016000680022052100F010000090A2
:103C70003620FDF7E1FCBDE808403620FDF7CEBC5C
:103C8000074A914207D1016841F080010160006854
:103C900000F08000009008BD00100040E844025889
:103CA000001C004090F83D10012901D00120704710
:103CB000174A022180F83D100168CB6843F00103E8
:103CC000CB600068904214D0B0F1804F11D0114900
:103CD00088420ED0104988420BD01049884208D043
:103CE0000F49884205D00F49884202D00E498842C8
:103CF00007D181680D4A1140062906D0B1F5803FF1
:103D000003D0016841F0010101600020704700000C
:103D1000000001400004004000080040000C00408A
:103D2000000401400018004000400140070001006D
:103D30002DE9F04104000D4603D094F83D0018B180
:103D400008E00120BDE8F081002084F83C00204616
:103D500000F04CF8244A022084F83D002068816875
:103D6000114081602068211D03F094F8226840F220
:103D70000336AF6940F60C4C2B684FF2F00EA86882
:103D800091680B439169B14341EA07210843D5E9A2
:103D9000031720EA0C00D5E9076C20EA0E00D2F8E0
:103DA00020E03F0140EA062668686D69314347EA32
:103DB0000C37936023680F4301219F612EF0AA0204
:103DC00042EA051322681843106284F8481084F808
:103DD0003E1084F83F1084F8441084F8451084F8AD
:103DE0003D100020AEE70000F8BFFEFFF0B587B041
:103DF000054614216846FCF71BFB4D4900242B683F
:103E000002254B4A08394B48B3F1804F4A4E19D02E
:103E10004A4FBB4244D1106840F002001060106865
:103E200000F002000590086840F00400086008688F
:103E3000694600F004000590C02000904048CDE99C
:103E4000015471E0136843F001031360126802F03B
:103E5000010205920A6842F001020A600A6802F053
:103E6000010205920A6842F002020A60096801270D
:103E700001F002010591F9030091CDE90154CDE96A
:103E800003476946FDF7E0F908200090CDE90154A9
:103E9000CDE9034769463046FDF7D6F907B0F0BDD6
:103EA000284FBB4228D1106840F004001060106811
:103EB00000F004000590086840F0080008600868F9
:103EC00000F008000590086840F0020008600868EB
:103ED000694600F00200059098140090CDE9015465
:103EE0001948CDE90345FDF7AFF980200090CDE9F1
:103EF00001546946304617E0144EB342CED11368E0
:103F000043F008031360126802F0080205920A6881
:103F100042F001020A60096801F0010105910321E4
:103F20000091CDE901546946CDE90345B4E70000AD
:103F3000E8440258000002580004025800040040FF
:103F40000008025800080040000C0258000C004015
:103F500070B504464FF0020094F83E2094F83F50AC
:103F600094F8446094F8453021B104290DD0012A19
:103F70001AD113E0012A17D1012E15D184F83E0081
:103F800084F844000021206820E0012D0CD1012B91
:103F90000AD184F83F0084F8450014E0012D03D1D4
:103FA000012E01D1012B01D0012070BD84F83E000B
:103FB00084F83F0084F8440084F84500012220681A
:103FC000002102F0CDFF20680122042102F0C8FF89
:103FD0002068016841F001010160002070BD704758
:103FE0002DE9F041044600680027C6680569A90765
:103FF00013D5B10711D5FA1E02610121217720687E
:1040000080698007204602D0FFF7E9FF04E000F056
:10401000B5F8204600F077F92777680716D57007BE
:1040200014D5226802206FF0040111612077206806
:10403000806910F4407F204602D0FFF7D0FF04E0F3
:1040400000F09CF8204600F05EF92777280715D588
:10405000300713D5226804206FF008011161207722
:104060002068C0698007204602D0FFF7B8FF04E04F
:1040700000F084F8204600F046F92777E80616D5C8
:10408000F00614D5226808206FF010011161207726
:104090002068C06910F4407F204602D0FFF79FFFE0
:1040A00004E000F06BF8204600F02DF92777E807D0
:1040B00008D0F00706D021686FF0010008612046A3
:1040C00000F0AAF9280601D4A80408D5300606D5C0
:1040D00021686FF4025008612046FFF733FDE805C0
:1040E00008D5300606D521686FF480700861204637
:1040F000FFF727FD680608D5700606D521686FF022
:1041000040000861204600F088F9A8060AD5B006EC
:1041100008D521686FF0200008612046BDE8F04115
:10412000FFF711BDBDE8F08110B586B0044614213B
:104130006846FCF77DF90E492068884215D10D4884
:10414000016841F00101016000680923402100F08D
:10415000010005900020009102226946CDE901206E
:10416000CDE903030448FDF76FF806B010BD000069
:10417000001C0040E044025800000258704770B52F
:10418000044690F83C0000260D4601280BD0012083
:1041900084F83C000C2A4AD007DC82B1042A20D0E3
:1041A000082A06D131E0022070BD102A53D0142A0B
:1041B00063D00126002084F83C00304670BD2068A2
:1041C00002F0DCFE2068816941F00801816120680D
:1041D000816921F00401816120682A6981691143A4
:1041E00011E0206802F01CFF2068816941F4006141
:1041F00081612068816921F4806181612068296979
:10420000826942EA01218161D4E7206802F054FF0B
:104210002068C16941F00801C1612068C16921F0CD
:104220000401C16120682A69C169114311E0206855
:1042300002F08EFF2068C16941F40061C16120680D
:10424000C16921F48061C16120682969C26942EABB
:104250000121C161AEE7206802F0B6FF2068416D20
:1042600041F0080141652068416D21F0040141657C
:1042700020682A69416D114311E0206802F0DEFFD9
:104280002068416D41F4006141652068416D21F471
:104290008061416520682969426D42EA01214165DA
:1042A00088E710B5040003D094F83D0010B107E092
:1042B000012010BD002084F83C00204600F022F8C8
:1042C000022084F83D002068211D02F0E3FD01205A
:1042D00084F8480084F83E0084F83F0084F84000E9
:1042E00084F8410084F8420084F8430084F84400D4
:1042F00084F8450084F8460084F8470084F83D00BF
:10430000002010BD7047704730B504464FF00202E0
:1043100069B1042912D0082917D00C291CD0102902
:1043200021D094F84300012824D0012030BD94F816
:104330003E000128F9D184F83E201DE094F83F00AA
:104340000128F2D184F83F2016E094F840000128BB
:10435000EBD184F840200FE094F841000128E4D12B
:1043600084F8412008E094F842000128DDD184F867
:10437000422001E084F843200122206802F0F0FD91
:104380001B4B20681B491C4A984209D0884207D021
:10439000904205D0194DA84202D0194DA84203D130
:1043A000456C45F4004545642068984212D0B0F150
:1043B000804F0FD0134B98420CD0134B984209D02A
:1043C000124B984206D0884204D01149884201D04D
:1043D000904207D181680F4A1140062906D0B1F5F5
:1043E000803F03D0016841F001010160002030BD31
:1043F0000000014000040140004001400044014031
:10440000004801400004004000080040000C00404B
:1044100000180040070001007047704730B590F861
:104420008410012918D0012280F884202421C0F8AA
:1044300088100022202401680B680D6823F00053C7
:1044400025F001050D60426601680B60C0F88840E8
:1044500080F88420104630BD022030BD7047704780
:1044600070B5044690F8840001281DD0012284F81C
:1044700084202420C4F8880020680568026822F09F
:10448000010202602068826822F060620A43826052
:10449000204603F001F82268202100201560C4F8AE
:1044A000881084F8840070BD022070BD70B5044689
:1044B00090F8840001281DD0012284F88420242053
:1044C000C4F8880020680568026822F001020260D2
:1044D0002068826822F060420A438260204602F02F
:1044E000DBFF2268202100201560C4F8881084F8C2
:1044F000840070BD022070BD704770477047000097
:104500002DE9F04107680025044640F60F03022616
:10451000F8693968BA6818420AD183067ED501F075
:10452000200302F0805C53EA0C0377D0616F7EE1D8
:10453000D44BDFF854C3134001EA0C0C53EA0C0CC3
:104540006CD05FEAC07C0CD05FEAC15C09D54FF04B
:10455000010CC7F820C0D4F8907047F00107C4F8E8
:104560009070870709D5D70707D027683E62D4F82F
:10457000906046F00406C4F8906046070AD5D60756
:1045800008D0276804263E62D4F8906046F0020600
:10459000C4F8906006070CD501F020061E4308D031
:1045A000266808233362D4F8903043F00803C4F837
:1045B000903003050BD54B0109D526684FF40063F5
:1045C0003362D4F8903043F02003C4F89030D4F82C
:1045D0009030002B3DD0800609D501F0200002F07C
:1045E0008051084303D0616F09B120468847216894
:1045F000D4F890008968490602D410F0280F2AD018
:10460000204603F02DF82068806840061ED52068FB
:10461000083050E8001F21F0400100E021E040E8B0
:104620000012002AF3D1D4F8800078B197490165CF
:10463000D4F88000FCF7B4FC00280AD0D4F880003D
:10464000016D00E02046BDE8F04108472046FFF735
:1046500055FFBDE8F0812046FFF750FFC4F89050A9
:10466000F7E7D4F86CC02023BCF1010F7ED15FEADC
:10467000C06C7BD55FEAC16C78D5102038622068A9
:104680008068400673D5D4F880208149106888423C
:1046900034D07F491831884230D07D49303188424A
:1046A0002CD07B494831884228D0794960318842F2
:1046B00024D077497831884220D07549903188429A
:1046C0001CD07349A831884218D07249884215D04D
:1046D00070491831884211D06E49303188420DD06E
:1046E0006C494831884209D06A496031884205D016
:1046F00068497831884201D06649903140684FF46A
:1047000080770004000C40D0B4F85C1081423CD9A2
:10471000A4F85E00D069B8422FD0216851E8000F9C
:1047200020F4807041E80002002AF6D120680830A9
:1047300050E8001F21F0010140E80012002AF5D1E5
:104740002068083050E8001F21F0400140E80012C6
:10475000002AF5D1C4F88C30E566206850E8001FC7
:1047600021F0100140E80012002A01E04AE019E0BF
:10477000F3D1D4F88000FCF763FA2667B4F85C0044
:10478000B4F85E10401A81B208E0B4F85C108142BF
:104790007FF466AFD069B842FAD126672046FFF7AA
:1047A0005DFE56E7B4F85C00B4F85E10B4F85E2025
:1047B000401A81B2002AF4D00029F2D0226852E8CF
:1047C000000F20F4907042E80007002FF6D1324F1E
:1047D000206800F1080050E8002F02EA070240E8D4
:1047E000002CBCF1000FF3D1C4F88C30E56665678E
:1047F000226852E8000F20F0100042E80003002B6E
:10480000F6D1CAE7C60209D5560207D54FF4801083
:1048100038622046BDE8F041FFF76FBE06060AD5B4
:1048200001F0800602F40002164304D0A16F0029B3
:104830007FF408AF0DE7420611D54A060FD5204692
:10484000016851E8002F22F0400241E80024002CCA
:10485000F6D1C0F88830856700F0F2FAF9E6020276
:1048600006D54A0004D52046BDE8F041FFF744BE16
:10487000C00196D5002994DA2046BDE8F041FFF743
:10488000EEBD000001000010200100044F7600087A
:104890001000024010040240FEFFFFEF10B50400BC
:1048A00003D0D4F8880010B107E0012010BD00202B
:1048B00084F88400204600F027F82420C4F88800FB
:1048C0002068016821F001010160A06A10B1204652
:1048D00002F004FE204603F055F90128E6D02068D6
:1048E000416821F4904141602068816821F02A01EB
:1048F00081602068016841F0010101602046BDE847
:10490000104002F04FBE00002DE9F04FB7B0064650
:10491000142130A8FBF78CFDC0216846FBF788FD09
:104920009E4C0227A0494FF008083068083C9B4D78
:104930000026DFF86CB28842DFF868A23FD1002180
:104940001E960220CDE900016846FDF7D3FA08B1B2
:10495000FCF765F9286840F400202860286800F416
:1049600000203590206840F008002060206800F0AA
:1049700008003590206840F002002060206830A9CF
:10498000344600F00200359001203090CDE93176B8
:10499000CDE933685846FCF757FC4FF4007030906F
:1049A000CDE93174CDE9334830A95046FCF74CFCD1
:1049B000002205213420FCF73FFE3420EBE07B4948
:1049C0004FF00409884238D100201E960222CDE91A
:1049D00000206846FDF78EFA08B1FCF720F9286838
:1049E00040F480102860286800F48010359020681A
:1049F00040F002002060206800F00200359020683E
:104A000040F00800206020680E21344600F00800C5
:104A100035904FF400503090CDE93176CDE93361D7
:104A200030A95046FCF710FCCDF8C09030A9CDE974
:104A30003174CDE93348584628E05D4988422AD18F
:104A400000201F960121CDE900106846FDF752FABB
:104A500008B1FCF7E4F851480830016841F0100152
:104A60000160006800F010003590206840F00200FE
:104A7000206020684FF44041309130A900F00200DE
:104A8000CDE931763396CDE934905046FCF7DCFB26
:104A900037B0BDE8F08F47494FF00709884237D15A
:104AA00000201E960221CDE900106846FDF722FA8B
:104AB00008B1FCF7B4F8286840F400302860286892
:104AC00000F400303590206840F00100206020683C
:104AD00000F001003590206840F008002060206858
:104AE00030A9CDF8C080344600F008004D46CDE92D
:104AF00031763396CDE934902F48FCF7A5FB202082
:104B00003090CDE93174CDE9334530A95846BDE741
:104B10002A498842BCD100201E960221CDE900100E
:104B20006846FDF7E7F908B1FCF779F8286840F422
:104B300080202860286800F480203590206840F0AC
:104B400002002060206800F002003590206840F0EC
:104B500008002060206830A94C4600F0080035901D
:104B60004FF400603090CDE93176CDE9336950469D
:104B7000FCF76AFB4FF480703090CDE93176CDE9D7
:104B8000336430A95846FCF75FFB0022052127203B
:104B9000FCF752FD2720FCF741FD79E7E844025875
:104BA000000C025800040258004C00400050004025
:104BB000001001400044004000000258004800403E
:104BC00030B4D0F88C30202B02D0022030BC70479B
:104BD000A9B1A2B10B4D00240368C466AB420BD04F
:104BE0005B681B0208D5046854E8003F43F080630B
:104BF00044E80035002DF6D130BC03F099B901200E
:104C0000E4E70000000C00582DE9F84F544906462F
:104C100000680025534C884238D1A178524BAA290C
:104C200009D02089FF2803D82089421C19542281E9
:104C3000552902D024E02581F6E722894FF6FF703E
:104C4000DFF8289100219A4600EAC200A08015E012
:104C50001AF801305FF00000C0F1070700F1010C05
:104C600000EBC10823FA07F70CF0FF0007F0010C76
:104C7000082809F808C0EFD3491C89B29142E7D34C
:104C8000384901223A48891CFFF79AFF39494FF009
:104C900080573068DFF8E08088422CD13349627851
:104CA00040390A2A02D020693F2819D320690023FD
:104CB0006A460D5431482D4900954039006806F088
:104CC000D3FF2A48402125614038FBF7B1FB00980B
:104CD00058B1C8F80070BFF34F8FBFF36F8F04E077
:104CE0000D2A02D00A54431C23611E490122244884
:104CF000491CFFF765FF2349306888422DD11B4AC4
:104D00002178803A0A2902D0E0683F2819D3E06868
:104D100000231649803915541B486A4600950068DF
:104D200006F0A2FF11484021E5608038FBF780FBC8
:104D3000009858B1C8F80070BFF34F8FBFF36F8F62
:104D400004E00D2902D01154431CE360BDE8F84F84
:104D5000044901220D48FFF733BFBDE8F88F00007A
:104D60000010014094000024685C0124E85D0124E7
:104D7000146801240048004004ED00E0080000240D
:104D80003C690124004C00400C000024EC66012426
:104D90002DE9F8430446D0F88800984616460D469B
:104DA000202802D00220BDE8F883A5B19EB10021E1
:104DB000C4F890102120C4F888001834FCF772FB66
:104DC000814654F8100CA687E6872027183CB0F5DA
:104DD000805F02D003E00120E5E7206910B12E4694
:104DE000002510E000260EE08021204603F028F97F
:104DF000C0B9DEB116F8010B21688862B4F856001C
:104E0000401EA4F85600B4F856004B464FF000027E
:104E1000CDF800800028E7D14FF04001204603F094
:104E20000FF948B1C4F888700320BCE735F8020BCD
:104E30002168C0F30800E0E7C4F888700020B2E7FA
:104E400000680349884202D102A003F021BB7047E9
:104E50000010014055415254205472616E736D69C7
:104E60007373696F6E20436F6D706C657465210A92
:104E700000000000FEE7000000B5944AB0EE415A81
:104E8000F0EE605A2DED0A8BB0EE406A9FED900A6D
:104E90009048D2ED060AD2ED090AD2ED070AD2ED0A
:104EA000080A006892ED06AAD2ED06CA92ED06CA7B
:104EB000D2ED079A92ED069AD2ED08BAD2ED078AA2
:104EC00092ED07BAD2ED077A92ED098AD2ED086A1F
:104ED00092ED087AD2ED08AAD2ED094AD2ED090A7C
:104EE00092ED091AD062D06A916A27EE888A66EE3E
:104EF000877A2AEE2CAA6CEE299A29EE2B9A68EE74
:104F00008B8A2AEEA47A60EE816A884206D2916A80
:104F10004FF6FF70D36A401A184402E0D06A916AD3
:104F2000401A00EE900AD06AF8EE600AC0EE804A9D
:104F3000906221EEA10A02EE020A02EEA20A04F039
:104F400019FE61EE801A22EE002A62EE802A23EE1C
:104F5000030A03EEA30A04EE040A04F00BFE3AEE81
:104F6000681A39EE870AF0EE000A38EE493A31EE57
:104F7000671A20EE200A23EE203A71EE263A62EEFE
:104F8000830A22EE231A41EEE30A02EEC01A21EE52
:104F9000800A02EE430AB5EEC01AF1EE10FA37D0DD
:104FA000F5EEC00AF1EE10FA32D0B5EEC00AF1EE1D
:104FB00010FA2DD09FED482AD2ED032AF6EE001A02
:104FC00061EE023A20EE823A20EE022A00EE215AE9
:104FD00043EEA42A01EE216A40EEA15AC2ED032A53
:104FE00092ED040A03EE240A82ED040A92ED050A0A
:104FF00002EE240A82ED050A92ED031AD2ED040AAC
:1050000092ED050A36EE016A75EEA05A35EE005AA9
:1050100092ED070AD2ED089A92ED061A26EE400AA2
:1050200092ED089A21EE061AD2ED097A09EEE50A08
:10503000D2ED063A09EE051A92ED097A63EEA53A29
:10504000D2ED078A07EEC50A92ED063AD2ED060ABE
:1050500048EEC53A07EE651A60EE850A00EE243A7E
:10506000D2ED071AD2ED096A92ED078A41EE241AB1
:1050700046EE863A48EE250A23EE030A92ED082A08
:1050800092ED084AD2ED092A03EEA42A44EE460A1C
:1050900001EEA10A40EEA42A02EE020A02EEA20AE2
:1050A00004F068FD63EE000A21EE801A62EE001A39
:1050B00022EE800AC2ED060A82ED071AC2ED081A36
:1050C00082ED090ABDEC0A8B00BD000048000024F7
:1050D00000409C46000000246F12833A0E4991ED77
:1050E000000A80ED000A91ED010A80ED010A91EDC0
:1050F000020A80ED020A91ED030A80ED030A91EDA8
:10510000040A80ED040A91ED050A80ED050A91ED8F
:10511000060A80ED060A70478C32002410B504465A
:10512000194800F039F818499FED180ADFED181AF0
:1051300091ED041A91ED052AD1ED030A61EE002AE2
:1051400022EE002A20EE803AC2EEA10A82EE211A57
:1051500083EE210AD1EC031A183191EC033AFFF7E0
:105160008BFE0C4890ED060A84ED000A90ED070ACC
:1051700084ED010A90ED080A84ED020A90ED090A17
:1051800084ED030A10BD0000F84E0024DB0F4940F7
:10519000000034434800002430B58DB0044603A914
:1051A000684606AA04F06AF93E4864219DED000AAB
:1051B0000AAB80ED000A9DED010A07AA80ED010A05
:1051C0009DED020A80ED020A9DED030A80ED030ABF
:1051D0009DED040A80ED040A9DED050A80ED050AA7
:1051E0009DED060A80ED060A0C3004F0F9F92D4811
:1051F0002D4A079B0C382D4993421FDA089B934296
:105200001CDA099B934219DA8A68632A16DBDDED02
:105210000A0A9FED270AC0ED000ADDED0B0A002205
:10522000C0ED010ADDED0C0A0125C0ED020A81ED99
:10523000030A81ED040A81ED050A03E08A68642A05
:1052400001DA521C8A609DED000A002D84ED000AEF
:105250009DED010A84ED010A9DED020A84ED020A2A
:10526000D0ED000A9DED030A30EE600A84ED030ADA
:10527000D0ED010A9DED040A30EE600A84ED040AC7
:10528000D0ED020A9DED050A30EE600A84ED050AB4
:1052900081ED0C0A03D0DFED070AFBF7ADFB0DB083
:1052A00030BD00008C3200240AD7A33C4800002403
:1052B000000000000BD7A33B10B504462DED088B72
:1052C00084B06846FFF72AFFDDED020AF8EE008A97
:1052D000DDED011AB0EE008A20EEA81A61EE882AF0
:1052E0009DED030A9DED002A21EE201A60EE081ABA
:1052F00022EE082A62EEA00AB7EE00AA01EEC01A5A
:1053000042EE000A31EE0A1AB7EEE00AB7EEC11A11
:1053100003F0FEFA9FED289B9FED29BB20EE090BC1
:1053200080EE0B1BB7EEC10B84ED000A9DED030A66
:10533000DDED020A9DEC021A21EE081A61EEA81AB0
:1053400021EE800A01EE200AB7EEC00A03F0DCF875
:1053500020EE090B80EE0B1BB7EEC10B84ED010AAA
:105360009DED010A9DED001ADDED020A60EE281A9E
:1053700061EE082A20EE881A9DED032A61EE801A5C
:1053800021EE022A41EE601A02EE802A31EE8A0AEC
:10539000B7EEC01AB7EEC20A03F0BAFA20EE090B54
:1053A0009FED091B80EE012BB7EEC20B84ED020AC4
:1053B00004B0BDEC088B10BD00000000008066400A
:1053C00000000060FB2109C000000060FB210940D3
:1053D00001221146104610B505F02EFC20B1BDE8A3
:1053E00010400DA003F054B810489FED0F0AF7EEDF
:1053F000000AC0ED060A80ED070A80ED080A0C4994
:1054000080ED090A80ED030A80ED040A80ED050AAB
:1054100009688162C16210BD494D55204552524F05
:105420005221210D0A000000000000004800002465
:10543000000000241CB5002102200B46CDE900012C
:10544000C201044801A106F049FD1CBD4B6579531A
:1054500063616E0069B100081CB50121394A084634
:1054600004F0CAFE384C0021364A10326063102026
:1054700004F0C2FE334A0121A0630846183A04F042
:105480008FFE002220634021052006F09EFA0022B4
:1054900020604021052006F098FA606000212B4A28
:1054A0002B4804F0F5FE294A0021A0602948243247
:1054B00004F0EEFE254A0021E0602748483204F05F
:1054C000E7FE224A0021206124486C3204F0E0FE0D
:1054D0001E4A002160612248903204F0D9FE1B4A26
:1054E0000021A0611F48B43204F0D2FE154A002109
:1054F000E0611D48A83A04F0CBFE124A0021206268
:105500001A48843A04F0C4FE0E4A0021606218482A
:10551000603A04F0BDFE0B4A0021A06215483C3AF7
:1055200004F0B6FEE062FFF785FF00211D200B4668
:105530004FF40072CDE9000111480FA106F0CEFC36
:105540001CBD0000CCD00008080000244CCF00088F
:10555000A573000831730008E5730008D1720008D4
:105560006D7300089B73000865730008C173000821
:1055700005740008B17200085465737400000000DF
:10558000097300082DE9F04F87B014216846FAF737
:105590004FFF7848016841F010010160016801F097
:1055A00010010591016841F004010160016801F0FA
:1055B00004010591016841F080010160016801F07A
:1055C00080010591016841F001010160016801F06D
:1055D00001010591016841F002010160016801F0DB
:1055E00002010591016841F0080101600068002294
:1055F0009B2100F0080005905F48FBF748FFDFF8AB
:105600007C91002243F239014846FBF740FFDFF866
:1056100070A100224FF482715046FBF738FFDFF88B
:1056200064B1002240F203415846FBF730FF524874
:1056300001224FF4D441FBF72AFF5348002244F2E1
:105640005841FBF724FF01256946022688200024E3
:10565000CDE900054848CDE90246FBF7F5FD0327F3
:1056600046F61020CDE9000543486946CDE90247DA
:10567000FBF7EAFD38030090CDE90154694648463E
:105680000394FBF7E1FD39206946CDE90005CDE93A
:1056900002464846FBF7D8FD04206946CDE90005DF
:1056A000CDE902475046FBF7CFFD40F20140694685
:1056B000CDE90005CDE902475846FBF7C5FDCDE928
:1056C0000065CDE9024669465846FBF7BDFD4FF43B
:1056D0008068CDF80080039669462B48CDE90154D7
:1056E000FBF7B2FDA8036946CDE900052648CDE9E0
:1056F0000247FBF7A9FDE80369468DE8310022481F
:10570000FBF7A2FD380269468DE831004846FBF7F9
:105710009BFD28020090CDE9015469465046039450
:10572000FBF792FDCDF800806946CDE90145504672
:10573000FBF78AFD58200090CDE9015412486946D4
:105740000394FBF781FD202069468DE8310058461F
:10575000FBF77AFD00976946CDE9015406480394AA
:10576000FBF772FD0021E806FEF7C4F907B0BDE8BB
:10577000F08F0000E0440258001002580008025860
:105780000000025800040258000C02582DE9F041B4
:105790000C48012200210A4B02242025C0E90512F1
:1057A000C16110261627016280E8F800FCF704F9B1
:1057B000002803D0BDE8F041FBF731BABDE8F08125
:1057C00000500052EC5000241448002170B54FF0F6
:1057D0000053114C0722C0E90321C0E90513C0E9B9
:1057E000073141625A008162DD11C1621E13C0E9B6
:1057F0000D21C163016441648164C1640165416537
:10580000816580E87000FDF739FD002803D0BDE810
:105810007040FBF704BA70BD003800409059012475
:105820002DE9F04117484FF48007DFF854C00021FC
:10583000FA000726C0F800C01301C0E90362C0E9FE
:105840000171C0E907314162551054008162520173
:10585000C162C0E90D21C163016441648164C16416
:10586000016541658165C0E90554FDF707FD002824
:1058700003D0BDE8F041FBF7D2B9BDE8F0810000EC
:1058800000340140185A012410B588B01C21684624
:10589000FAF7CEFD144800244FF6FF71114AC0E913
:1058A0000024C0E9024104618461FEF79FF908B158
:1058B000FBF7B5F90C48FEF7F4FC08B1FBF7AFF9BC
:1058C00060206946CDE90004074800220294049450
:1058D000FEF755FC08B1FBF7A2F90348FEF724FCDC
:1058E00008B010BD001C00401C5C012410B58CB039
:1058F00024216846FAF79CFD1448002401210994EC
:105900008A1E0A948B070B94C0E90034C0E9024256
:1059100004618461CDE90014CDE902140494CDE959
:105920000541694607940894FEF702FA08B1FBF7AF
:1059300076F9064809A909940B94FEF705F90028A1
:1059400001D0FBF76CF90CB010BD0000A05A012487
:1059500010B58CB024216846FAF76AFD154800247A
:105960004FF6FF72124B099401210A940B94C0E97F
:105970000034C0E9024204618461CDE90014CDE93C
:1059800002140494CDE90541694607940894FEF792
:10599000CFF908B1FBF743F9064809A909940B941C
:1059A000FEF7D2F8002801D0FBF739F90CB010BD92
:1059B00000040040EC5A012410B58CB02421684644
:1059C000FAF736FD154800244FF6FF72124B099482
:1059D00001210A940B94C0E90034C0E90242046139
:1059E0008461CDE90014CDE902140494CDE90541A8
:1059F000694607940894FEF79BF908B1FBF70FF985
:105A0000064809A909940B94FEF79EF8002801D0D6
:105A1000FBF705F90CB010BD00080040385B01240D
:105A200010B58CB024216846FAF702FD1548002411
:105A30000121134B8A1E09940A940B94C0E9003487
:105A4000C0E9024204618461CDE90014CDE9021489
:105A50000494CDE90541694607940894FEF768F976
:105A600008B1FBF7DCF8074809A909940B94FEF785
:105A70006BF8002801D0FBF7D2F80CB010BD000085
:105A8000000C0040845B01243EB50F48002409212E
:105A90000C4BEF22009401940294C0E9024184610E
:105AA000C0E90032FEF7A2F808B1FBF7B8F80648E3
:105AB000694600940294FEF747F8002801D0FBF7EE
:105AC000AEF83EBD00100040D05B01241848002114
:105AD00010B5164C0C224FF4E1330460C0E90131DB
