:020000040800F2
:1000000078C8022471030008995F0008254E000893
:10001000CD5C00086D090008B583000800000000F1
:10002000000000000000000000000000B102000815
:100030000D0C0008000000000D030008D96B00083B
:100040008F0300088F0300088F0300088F03000848
:100050008F0300088F0300088F0300088F03000838
:100060008F0300088F0300088F0300088F03000828
:100070008F0300088F0300088F0300088F03000818
:100080008F0300088F0300088F0300088F03000808
:100090008F0300088F0300088F0300088F030008F8
:1000A0008F0300088F0300088F0300088F030008E8
:1000B0008F0300088F0300088F0300088F030008D8
:1000C0008F0300088F0300088F0300088F030008C8
:1000D0008F0300088F0300088F0300087580000855
:1000E0008F0300088F030008000000008F03000842
:1000F0008F0300088F0300088F0300088F03000898
:100100008F0300088F0300088F0300088F03000887
:100110003974000845740008956D00088F030008C5
:100120008F0300088F0300088F0300088F03000867
:100130008F0300088F0300088F0300088F03000857
:1001400000000000000000000000000000000000AF
:100150008F0300088F0300088F0300088F03000837
:100160008F0300088F0300088F0300088F03000827
:100170008F0300088F0300088F0300088F03000817
:100180008F0300088F0300088F0300088F03000807
:100190008F0300088F0300088F0300088F030008F7
:1001A0008F0300088F0300088F0300088F030008E7
:1001B0008F0300088F0300088F0300088F030008D7
:1001C0008F0300088F0300088F0300088F030008C7
:1001D0008F0300088F0300088F0300088F030008B7
:1001E0008F0300088F0300088F0300088F030008A7
:1001F0008F0300088F0300088F0300088F03000897
:100200008F0300088F0300088F0300088F03000886
:100210008F0300088F0300088F0300088F03000876
:100220008F0300088F0300088F0300080000000000
:100230008F0300088F030008000000008F030008F0
:100240008F0300088F0300088F0300088F03000846
:100250008F0300088F0300088F0300088F03000836
:100260008F0300088F0300088F0300088F03000826
:100270008F0300088F0300088F03000800000000B0
:100280008F0300088F0300088F03000800000000A0
:10029000000000008F030008DFF810D000F0C8FA5B
:1002A0000048004745A10008AFF3008078C8022449
:1002B0002C4B19680868B0E8F04F80F30988BFF349
:1002C0006F8F4FF0000080F311887047000000002E
:1002D00008480068006880F308884FF0000080F349
:1002E000148862B661B6BFF34F8FBFF36F8F00DF24
:1002F00000BF00BF08ED00E0DFF80C00016841F42A
:1003000070010160704700BF88ED00E0EFF30980E5
:10031000BFF36F8F134B1A681EF0100F08BF20ED4C
:10032000108A20E9F04F106009B44FF0500080F3BC
:100330001188BFF34F8FBFF36F8F0CF043F84FF06E
:10034000000080F3118809BC19680868B0E8F04F14
:100350001EF0100F08BFB0EC108A80F30988BFF3BD
:100360006F8F7047CC000024EFF3058070470000CA
:10037000074880470748804707480047FEE7FEE7F1
:10038000FEE7FEE7FEE7FEE7FEE7FEE7FEE7FEE745
:10039000150C00089D6C0008990200082DE9F05F1B
:1003A0000546002092469B468846064681464024E4
:1003B0001BE0284641464746224600F070F8534667
:1003C0005A46C01A914110D311461846224600F0F1
:1003D00057F82D1A67EB01084F46224601200021ED
:1003E00000F04EF817EB00094E41201EA4F1010465
:1003F000DFDC484631462A464346BDE8F09F40EAE6
:1004000001039B0703D009E008C9121F08C0042A92
:10041000FAD203E011F8013B00F8013B521EF9D279
:100420007047D2B201E000F8012B491EFBD27047A1
:100430000022F6E710B513460A4604461946FFF7B0
:10044000F0FF204610BD421C10F8011B0029FBD113
:10045000801A704730B50B46014600202022012447
:1004600009E021FA02F59D4205D303FA02F5491B82
:1004700004FA02F52844151EA2F10102F1DC30BD98
:10048000202A04DB203A00FA02F100207047914054
:10049000C2F1200320FA03F3194390407047202A49
:1004A00004DB203A21FA02F00021704721FA02F31E
:1004B000D040C2F1200291400843194670472DE90F
:1004C000FE4F804681EA0300C00F0C46009021F0E9
:1004D000004123F00045B8EB0200A94105D2404697
:1004E000214690461C460B46024623F0004010432E
:1004F00047D0270DC7F30A00C3F30A510290401AF0
:10050000019040286BDAC3F3130040F4801B00987D
:10051000924620B10023D2EB030A63EB0B0B019848
:100520005946C0F140025046FFF7AAFF06460D4665
:1005300050465946019A00F08DF910EB08006141D0
:10054000002487EA115284EAE7731A4340D0009AE4
:1005500062B3019A012A4FEA075215DC001B61EBD6
:1005600002014FF0004202EA0752CDE90042001CAE
:1005700041F5801132462B4600F08DF903B0BDE8FD
:10058000F08F40462146F9E7001B61EB0201001C99
:1005900041F5801300185B412018A2F5001747EBC6
:1005A000030140EAD570B6196D4111E06D084FEABC
:1005B000360645EAC0754FEA0752001B61EB02019F
:1005C000001C41F5801149084FEA300000195141E3
:1005D00032462B4603B0BDE8F04F00F04DB900980D
:1005E000012240000023D0EB020263EBE07300988D
:1005F00021464FEAE074B8EB000061EB0401E9E743
:1006000083F000435BE781F0004158E72DE9FE4F9E
:1006100081EA030404F0004421F0004100944FF00B
:10062000000B23F0004350EA01045ED052EA0304B9
:100630005BD0C3F30A54C1F30A552C44A4F2F3343B
:100640000194A0FB0254C1F3130141F48011C3F3E0
:10065000130343F4801301FB024400FB034E840A9E
:10066000970A44EA815447EA8357A4FB0768029536
:100670008D0A05FB07854FEA932C04FB0C542705D4
:10068000029D4FEA065847EA1637B5EB08056EEBB0
:10069000070C870E920E47EA811742EA8312A7FBE6
:1006A0000201B6EB0B0164EB00042B0D43EA0C33A3
:1006B0005E1844EB1C50DA465146E7FB0201C5F3D5
:1006C00013044FEA0B3343EA14534FEA0432019CFC
:1006D00043EA0603A4F10C040294009CCDE900B4A3
:1006E00000F0D9F803B0BDE8F08F00200146F9E72B
:1006F0002DE9F04D81EA030404F0004B21F00045A0
:1007000014464FF0000A23F0004150EA050220D0C1
:1007100054EA01021DD0C5F30A570246C5F313037C
:10072000C1F31300C1F30A5640F4801543F480135B
:10073000A7EB0608101BD64608F2FD3873EB050040
:1007400002D308F1010801E092185B41B8F1000FF3
:1007500003DA00200146BDE8F08D00204FF480113F
:10076000064684460EE0171B73EB050705D3121BE4
:1007700063EB050306434CEA010C49084FEA3000DD
:1007800092185B4150EA0107EDD152EA030012D002
:1007900082EA040083EA0501084305D0101BAB413F
:1007A00006D20122002306E000224FF0004302E0BF
:1007B0006FF0010253101AEB06004CEB085110EBDE
:1007C0000A0041EB0B01BDE8F04D00F055B8C1F354
:1007D0000A52C1F3130140F2FF3341F480119A42EF
:1007E00002DA00200146704740F233439A42A2F2F7
:1007F000334202DC5242FFF752BEFFF741BE000017
:1008000030B5041E71F1000404DB4FF00044404297
:1008100064EB0101141E73F1000405DB1C464FF06C
:100820000043524263EB0403994208BF904230BD3B
:10083000064C074D06E0E06840F0010394E807002D
:1008400098471034AC42F6D3FFF72AFDA8DF000822
:10085000C8DF0008202A06DBCB17203A41FA02F055
:1008600043EAE07306E041FA02F3D040C2F120020D
:10087000914008431946704710B5141E73F10004E7
:1008800008DA401C41F1000192185B411A4301D182
:1008900020F0010010BD2DE9F04D92469B4611B1AC
:1008A000B1FA81F202E0B0FA80F220329046FFF70E
:1008B000E7FD04460F4640EA0A0041EA0B015346B1
:1008C0005A46084313D0114653EA010019D0C8F123
:1008D00040025046FFF7E3FD05460E465046594696
:1008E0004246FFF7CDFD084305D0012004E0204635
:1008F0003946BDE8F08D0020054346EAE0762C43FA
:1009000037430A986305E40AA0EB08000022FD0AB9
:1009100044EA47540A3002D500200146E9E70105C0
:1009200010196941DDE9084500196941BDE8F04D3C
:10093000A2E730B58C1810F8012B12F00F0301D18B
:1009400010F8013B120906D110F8012B03E010F852
:10095000015B01F8015B5B1EF9D101E001F8013B8D
:10096000521EFBD1A142E6D3002030BDFEE70000BD
:1009700010B50E4C01202DED028B6076002007F0A3
:1009800031FD0120B0EE408A07F02CFD38EE000A60
:10099000F6EE000A064820EE200A84ED000A90EDEB
:1009A000000A84ED010ABDEC028B10BD5401002445
:1009B0008000002410B50E4C9FED0C0A207EF0EE56
:1009C000400A78B9D4ED030A94ED010A04F11C0041
:1009D00005F078FC94ED021AF0EE400A31EE600A60
:1009E00071EE200ABDE8104007F006BD00000000CF
:1009F000540100241748194990ED041A00EE201AFA
:100A000080ED041AD0ED051AB5EEC01A40EE201A9A
:100A1000DFED110AF1EE10FAC0ED051A08D231EE41
:100A2000200A80ED040AB1F87820521EA1F878203F
:100A300090ED040A0A4B10EE102A9A4208DB30EEC1
:100A4000600A80ED040AB1F87800401CA1F8780033
:100A500070470000540100240000B44398010024B2
:100A60000000B44370B5374D0124374E2DED028B95
:100A700028789FED368A02284AD0032848D00428D7
:100A800038D133489FED331A334990ED040AB5F954
:100A9000780000EE900AF8EEE00A00EE810AD5ED4B
:100AA0001F0A30EE600A85ED0E0AD5ED0D0A30EE14
:100AB000600AB0EEC00A10EE100A884209DAB0EE01
:100AC000480A85F88440B0EE401AF0EE400A05F07E
:100AD000C9FF95ED0E0AD5ED0D0A30EE600AD5ED91
:100AE000200AB0EEC00AB4EEE00AF1EE10FA01D22C
:100AF00085F88540BDEC028B70BD95ED020AD5ED01
:100B0000010A30EE600AD5ED1C0AB0EEC00AEAE731
:100B100008F08EFF95ED020AD5ED010A30EE600A6D
:100B2000B0EEC00A10EE100AB042E6DCB0EE480AA1
:100B300085F88440B0EE401AF0EE400A05F092FFCE
:100B4000DBE70000980100240000204100000000C5
:100B5000540100240000B4430000A04010B5274C0D
:100B600022462DED028B02F10C0021789FED248AA4
:100B700092ED020AD2ED010A022908D003290FD012
:100B8000042920D0B0EE480AF0EE400A2FE005F02C
:100B900099FBD4ED1B0A30EE200AF0EE480A26E05D
:100BA00005F090FBD4ED1B0AD4ED1A1A30EE200AA2
:100BB000D4ED190A60EE800A80EEA11ADFED110A69
:100BC00061EE200A13E00D48D4ED0D0A3C3094ED9F
:100BD0000E0A05F077FBF0EE400A9FED0B1AB0EE1F
:100BE000E00A20EE010A94ED1D1A20EE010ABDEC88
:100BF000028BBDE8104005F0E3BE00009801002420
:100C000000000000E12E654235FA8E3C704772B656
:100C1000FEE700000548016841F002010160034859
:100C2000083801688904FCD5704700000C48025858
:100C30002DE9F84F044600F0F9FB009034B194F828
:100C40003500022805D080206065EBE00120BDE87A
:100C5000F88FCC4ECB4FCB491836DFF8288330378E
:100C6000DFF82093DFF81CA308F14808DFF814B37D
:100C700009F1600920680AF1780A0BF1900B8842AB
:100C80002ED0B0422CD0B8422AD0404528D048457A
:100C900026D0504524D0584522D0BA4AA832904296
:100CA0001ED0B94A90421BD0B74A1832904217D092
:100CB000B54A3032904213D0B34A483290420FD0F6
:100CC000B14A603290420BD0AF4A7832904207D09E
:100CD000AD4A9032904203D0AB4AA832904209D13B
:100CE000026822F01E0202602068426922F080023F
:100CF000426103E0026822F00E02026025688D4224
:100D000028464DD0B0424BD0B84249D0404547D09C
:100D1000484545D0504543D0584541D0994AA8321E
:100D200090423DD0984A90423AD0974A1832904229
:100D300036D0954A3032904232D0934A483290426F
:100D40002ED0914A603290422AD08F4A7832904217
:100D500026D08D4A9032904222D08B4AA8329042BF
:100D60001ED08A4A90421BD0884A1432904217D033
:100D7000864A2832904213D0844A3C3290420FD0A7
:100D8000824A503290420BD0804A6432904207D05F
:100D90007E4A7832904203D07C4A8C32954204D10C
:100DA000206E026822F480720260764920688842D0
:100DB00028D0B04226D0B84224D0404522D0484561
:100DC00020D050451ED058451CD06E49A8318842CD
:100DD00018D06D49884215D06B491831884211D01E
:100DE0006949303188420DD067494831884209D07D
:100DF00065496031884205D063497831884201D025
:100E000061499031016821F0010101600EE000F0BC
:100E10000DFB0099401A052808D9202060650320A1
:100E200084F83500002084F834000FE72868C007F4
:100E3000EDD1544A0121206890422ED0B0422CD0EE
:100E4000B8422AD0404528D0484526D0504524D025
:100E5000584522D04B4BA83398421ED04A4B98425B
:100E60001BD0494B1833984217D0474B3033984228
:100E700013D0454B483398420FD0434B60339842D0
:100E80000BD0414B7833984207D03F4B9033984278
:100E900003D03D4BA833984208D194F85C30A06D44
:100EA00003F01F053F23AB40836007E094F85C30FC
:100EB000A06D03F01F0301FA03F343602068904222
:100EC0004DD0B0424BD0B84249D0404547D04845BC
:100ED00045D0504543D0584541D02A4AA832904287
:100EE0003DD0294A90423AD0274A1832904236D013
:100EF000254A3032904232D0234A483290422ED096
:100F0000214A603290422AD01F4A7832904226D03D
:100F10001D4A9032904222D01B4AA83290421ED0E5
:100F20001A4A90421BD0194A1432904217D0174ADD
:100F30002832904213D0154A3C3290420FD0134AC7
:100F4000503290420BD0114A6432904207D00F4A7F
:100F50007832904203D00D4A8C3290420BD1D4E9C2
:100F600019024260E06E30B1026822F480720260C1
:100F7000D4E91C02426084F83510002084F8340063
:100F800065E60000100002401004024008540258B8
:100F90002DE9F05F28B190F83510022904D08021A6
:100FA00041650120BDE8F09F914A914B914D183267
:100FB000904E3033DFF838C21835DFF834E2483667
:100FC000DFF83092DFF82CA20EF1600EDFF824B2C9
:100FD00009F1300901680AF1600A864C0BF1A80B8F
:100FE000614529D0914227D0994225D0804F48377A
:100FF000B94221D071451FD07D4F7837B9421BD0FF
:101000007B4F9037B94217D0794FA837B94213D0E8
:10101000A14211D0A9420FD049450DD0B1420BD009
:10102000514509D0734F7837B94205D0714F903789
:10103000B94201D059452FD1042780F83570614558
:1010400025D0914223D0994221D06948483081422D
:101050001DD071451BD066487830814217D0644856
:101060009030814213D06248A83081420FD0A14213
:101070000DD0A9420BD0494509D0B14207D0514506
:1010800005D05C487830814201D05A4890300868D9
:1010900020F001000860A8E0D1F8008028F00E08D8
:1010A000C1F800800168E04641452BD0914229D02B
:1010B000994227D0DFF838C10CF1480C614521D0A6
:1010C00071451FD0DFF828C10CF1780C614519D0AB
:1010D000DFF81CC10CF1900C614513D0DFF810C192
:1010E0000CF1A80C61450DD0A1420BD0A94209D04A
:1010F000494507D0B14205D0514503D0DFF8F4C0CF
:101100000CF1780CD1F800C02CF0010CC1F800C033
:1011100001684FF0010C414546D0914244D09942BC
:1011200042D0334A483291423ED071453CD0304A99
:101130007832914238D02E4A9032914234D02C4AA3
:10114000A832914230D0A1422ED0A9422CD049459C
:101150002AD0B14228D0514526D0264A7832914231
:1011600022D0B94220D059451ED0234A91421BD0EB
:10117000214A1432914217D01F4A2832914213D08B
:101180001D4A3C3291420FD01B4A503291420BD043
:10119000194A6432914207D0174A7832914203D0FB
:1011A000154A8C32914218D1016E0A6822F480727D
:1011B0000A6090F85C20816D02F01F020CFA02F2C6
:1011C0004A60D0E919124A60C16E31B10A6822F44E
:1011D00080720A60D0E91C124A6080F835C0002194
:1011E00080F83410016D01B188470020DAE6000074
:1011F00010000240100402400854025870B5044622
:1012000000F014F90546601C02D00448007804443C
:1012100000F00CF9401BA042FAD370BDB8000024C6
:101220002DE9F84F694C00224FF0B04A4FF0010B06
:101230004FF003084FF00F09C0E00BFA02F63340FD
:1012400073D00D7905F00305012D01D0022D15D1C4
:101250008768550008FA05FC27EA0C07D1F80CC08E
:101260000CFA05FC4CEA070CC0F808C04568B54309
:101270000E79C6F3001696402E4346600D79ED4375
:10128000AD0708D0C668550008FA05F7BE438F6859
:10129000AF403743C7600D7905F00305022D11D12A
:1012A000D50800EB85073E6A5507ED0E09FA05FCE7
:1012B00026EA0C06D1F810C00CFA05FC4CEA060C24
:1012C000C7F820C00668550008FA05F7BE430F7935
:1012D00007F00307AF40374307604D6815F4403F00
:1012E0006BD03B4D2E6846F002062E602D6822F032
:1012F000030606F1B04605F002050095D6F808741D
:1013000095074FEA157C09FA0CF5AF43314DA84219
:1013100001D100252EE0304DA84201D1012529E060
:101320002E4DA84202D1022524E046E02C4DA842D1
:1013300001D103251EE02B4DA84201D1042519E05F
:10134000294DA84201D1052514E0284DA84201D11C
:1013500006250FE0264DA84201D107250AE0254DBC
:10136000A84201D1082505E0234DA84201D1092555
:1013700000E00A2505FA0CF53D43C6F80854DAF8F2
:10138000005056464F689D43FF0200D51D4335600F
:1013900075684F689D43BF0200D51D437560656841
:1013A0004E689D43B60300D51D43656025684E68B1
:1013B0009D43F60300D51D432560521C0B6833FA8C
:1013C00002F57FF43AAFBDE8F88F000080000058C6
:1013D000F444025800000258000402580008025861
:1013E000000C02580010025800140258001802584D
:1013F000001C0258002002580024025800690840CE
:1014000000D001207047426921EA02030A4043EA02
:101410000241816170470AB1816170470904FBE7AD
:1014200001480068000C70470010005C01488068AB
:1014300070470000B8000024024881680278114417
:1014400081607047B8000024032010B500F0D4F884
:1014500001F05AFB0F4A11681268C1F303230E49C9
:10146000CB5C03F01F03D84002F00F02895C0B4AEB
:1014700001F01F0120FA01F11160094908600F20F5
:1014800000F010F808B1012010BD00F075F8002040
:1014900010BD000018440258ECDD0008C80000240C
:1014A000C400002470B50D4D04462A78A2B14FF453
:1014B0007A700B49B0FBF2F00968B1FBF0F002F072
:1014C000BDFA48B9102C07D200222146501E00F068
:1014D00073F800206C6070BD012070BDB80000245E
:1014E000C4000024134A41781160124908310A6887
:1014F00022F001020A600B1F42681A60027BC37A65
:10150000120742EA0362837A42EAC342437B42EA19
:101510008342837B42EA4342C37B42EA0342437AEB
:1015200042EA0322037A007842EA430202430A6055
:101530007047000098ED00E0BFF35F8F044801683A
:1015400021F4803101600249002070310860704749
:1015500024ED00E0074940F00100086005487038BC
:10156000016841F480310160BFF34F8FBFF36F8F8B
:101570007047000094ED00E0074882B0016841F038
:1015800002010160006800220F2100F002000090BB
:10159000901E02B000F010B8F4440258002809DB95
:1015A000012100F01F0291404009800000F1E0207D
:1015B000C0F80011704700000E4BF0B41B68C3F375
:1015C0000223C3F10704042C00D904241D1D072D98
:1015D00001D2002300E0DB1E012606FA04F56D1E91
:1015E0000D409D409E40761E164045EA0601F0BC27
:1015F00006F032BF0CED00E0064A00F0070110686B
:101600004FF6FF03184040EA0120034908431060E9
:10161000704700000CED00E00000FA0501680122AF
:10162000C0F8D824002280F8CC24886940F00060FB
:101630008861486D024A10434865002070470000E9
:1016400003000010F8B5040004D094F895040025B8
:1016500010B106E00120F8BD204684F8945400F053
:1016600057F8032084F89504206806F035FE207CA6
:101670008DF8000094E80F0006F002FD0226B0BBD2
:101680002068002106F068FE88BB002101270CE0DD
:1016900001EBC10004EB800047750175C185491C51
:1016A0000576C9B2C5610562456220798842EFD8E6
:1016B000002111E001EBC10004EB800080F85552DD
:1016C00080F85412491C80F85852C9B2C0F85C52D4
:1016D000C0F86052C0F8645220798842EAD8207C71
:1016E0008DF8000094E80F0006F040FD10B184F87A
:1016F0009564AFE7657484F89574207B012802D166
:101700002046FFF78BFF206806F022FD0020F8BD81
:1017100010B5B6B00446142130A8FEF789FEC021EA
:101720006846FEF785FE1B492068884230D10021BB
:101730004FF48020CDE900014FF44010229068461C
:1017400000F086FB08B1FFF762FA00F051F812488A
:10175000016841F001010160006830A900F001005A
:1017600035904FF4C05030900220319000203290DC
:1017700033900A2034900948FFF752FD0648083894
:10178000016841F000610160006800F00060359080
:1017900036B010BD00000840E04402580000025876
:1017A000124970B50A68D243520705D5096801F09D
:1017B0000701814212D117E00A6822F007020243B2
:1017C0000A60FFF733FE094D4FF47A760446083D70
:1017D00006E0FFF72BFE001BB04201D9012070BDCF
:1017E0002868C0438004F4D4002070BD0C4802581F
:1017F0000248016841F08071016070470C4802584E
:101800002DE9F84F1E4615468A460446FFF70EFEA0
:10181000814694F8400001280DD0012784F84070DB
:1018200094F841004FF00008012806D0022084F807
:101830004080BDE8F88F0220FBE7C4F844804220D6
:1018400084F84100002220214B462046009604F0F7
:10185000EFFE0028EBD1216828688862216868685B
:1018600048622168A868C86220682969026822F471
:10187000400242F4800211430160E9684FF00062C7
:101880002046CAF82810514604F054FD01224B4668
:1018900008212046009604F0CBFE0028C7D122681C
:1018A0000821D16084F84170C1E72DE9F84F17464F
:1018B0008B460446FFF7BAFD824694F840000128A3
:1018C0000ED0012684F8406094F841004FF00008E3
:1018D000012807D0022584F840802846BDE8F88F0B
:1018E0000220FBE7C4F844804FF0020984F84190DD
:1018F0000022202153462046009704F099FE05005F
:10190000E9D100225946204604F014FDDBF82400FA
:1019100058B90122534602212046009704F088FE60
:101920000500D8D12168C1F80C9084F84160D2E755
:1019300038B50446FFF77AFD05461CB194F841001E
:1019400010B107E0012038BD204600F041F841F217
:101950008830A064206801686FF0FF03A26821F45A
:10196000F85103EB022211430160A06C00222021F8
:101970002B460090204604F05BFE0028E3D1E2688D
:10198000E16923790A43216A41EA03610A43216834
:101990000B680D4D2B401A430A60D4E905210A4318
:1019A00021684B68094D2B40258A43EA05431A43B9
:1019B0004A6021680A6842F001020A6000216164FD
:1019C000012184F8411038BD2FFFFF00FEF8E0FF31
:1019D0002DE9F041B6B00446142130A8FEF728FDE9
:1019E000C0216846FEF724FD3C492068884271D139
:1019F000002013904FF000710446CDE900106846B6
:101A000000F026FA08B1FFF702F93548016841F401
:101A100080410160006800F48040359030480C300F
:101A2000016841F010010160016801F01001359179
:101A3000016841F002010160016801F00201359185
:101A4000016841F008010160016801F00801359169
:101A5000016841F004010160006809274FF00408A3
:101A6000CDF8C08000F00400022503263396CDE9AE
:101A700034701C4830A9CDE93154FFF7D1FBCDE9D2
:101A8000308532AADFF8608030A9404682E8D00075
:101A9000FFF7C6FB4FF4205032AACDE930051348BA
:101AA00030A982E8D000FFF7BBFB680232AACDE97B
:101AB00030050F4830A982E8D000FFF7B1FB402085
:101AC0003294CDE930050A2030A9CDE93360404693
:101AD000FFF7A6FB36B0BDE8F081000000500052D1
:101AE000D44402580010025800040258000C025856
:101AF000000802582DE9F84F16460F460446FFF736
:101B000095FC82462068816900F1200594F8402008
:101B1000012A0ED04FF0010884F8408094F841204B
:101B20004FF00009012A06D0022084F84090BDE859
:101B3000F88F0220FBE7C4F844909FB3222284F878
:101B400041200269521CA2630269521C626327632E
:101B5000426922F0406242F0806242612068816105
:101B60000DE00621204604F063FDC0B92878216B02
:101B70000870206B401C2063A06B401EA063A06B0C
:101B800053464FF0010200960028EAD14FF00201BF
:101B9000204604F04DFD10B922680221D16084F87E
:101BA0004180C2E7FFE7606C40F0080060640120FC
:101BB000BBE7000010B500F061FF05490968054A60
:101BC000C1F30211515C01F01F01C84010BD0000BB
:101BD00020440258ECDD0008484910B50A6809683D
:101BE00002F00302454B1B1DC1F305311B68434C3A
:101BF0001434C3F300132468C4F3CC0414FB03F3BC
:101C000000EE103AB8EE400AE9B33C4B9FED3C1AA7
:101C10001033F7EE000A62B1DFED3A1A012A01D063
:101C2000022A5ED002EE101AF8EE422A81EEA22AB3
:101C30001AE0324A283A1468A4060DD51268C2F395
:101C4000C104314AE24001EE902AF8EE612A01EE29
:101C5000901AF8EE611A05E001EE901ADFED2B2ADA
:101C6000F8EE611A82EEA12A1968C1F3080101EEAB
:101C7000901A1968F8EE611A40EE011A31EEA00AC6
:101C800022EE000A00E033E0C1F3462101EE101A13
:101C9000B8EE411A31EE201AC0EE011ABCEEE11A7C
:101CA00080ED001A1968C1F3064101EE101AB8EE72
:101CB000411A31EE201AC0EE011ABCEEE11A80ED95
:101CC000011A1968C1F3066101EE101AB8EE411A43
:101CD00071EE200A80EE201ABCEEC10A80ED020AE5
:101CE00010BD01EE901ADFED0A2AF8EE611AB9E78D
:101CF000002101604160816010BD0000284402584D
:101D0000000000390024744A0090D0030024744C71
:101D100020BCBE4B484910B50A68096802F00302AE
:101D2000454B1B1DC1F305511B68434C1C34C3F3C9
:101D300000232468C4F3CC0414FB03F300EE103A30
:101D4000B8EE400AE9B33C4B9FED3C1A1833F7EE6E
:101D5000000A62B1DFED3A1A012A01D0022A5ED0F0
:101D600002EE101AF8EE422A81EEA22A1AE0324A56
:101D7000283A1468A4060DD51268C2F3C104314A8A
:101D8000E24001EE902AF8EE612A01EE901AF8EE98
:101D9000611A05E001EE901ADFED2B2AF8EE611AC8
:101DA00082EEA12A1968C1F3080101EE901A1968A0
:101DB000F8EE611A40EE011A31EEA00A22EE000A96
:101DC00000E033E0C1F3462101EE101AB8EE411AEB
:101DD00031EE201AC0EE011ABCEEE11A80ED001AB5
:101DE0001968C1F3064101EE101AB8EE411A31EE3E
:101DF000201AC0EE011ABCEEE11A80ED011A196832
:101E0000C1F3066101EE101AB8EE411A71EE200A14
:101E100080EE201ABCEEC10A80ED020A10BD01EE70
:101E2000901ADFED0A2AF8EE611AB9E70021016085
:101E30004160816010BD0000284402580000003954
:101E40000024744A0090D0030024744C20BCBE4B84
:101E50002DE9FC5F044600680025FA4FC043DFF817
:101E6000E8832E46010104F10800019004F12800E6
:101E700000901DD4A06E50B1B0F5801F0CD0B0F50D
:101E8000001F0ED0B0F5401F1ED001250FE03868AE
:101E900040F40030386017E00198022104F0ECFBB8
:101EA00003E00098022104F071FC05000CD02E46DE
:101EB0002088C043C00523D4A06D05281ED2DFE8CA
:101EC00000F00C11161B1B00D8F80010A26E21F4B4
:101ED00040111143C8F80010EAE7386840F40030B8
:101EE000386009E00198002104F0C6FB03E0009887
:101EF000002104F04BFC054675B100E001252E469B
:101F00002088C043800528D4E06D80281ED00CDCDA
:101F100090B140280ED114E0D8F80010A26D21F045
:101F200007011143C8F80010EAE7C02813D0B0F544
:101F3000807F10D001250FE0386840F40030386011
:101F400009E00198002104F097FB03E000980021CC
:101F500004F01CFC05468DB12E462088DFF8EC927B
:101F6000C04340052CD4D4F8A800B0F5800F20D091
:101F70000DDCA0B1B0F5001F0FD115E0D8F80010AE
:101F8000E26D21F4E0711143C8F80010E5E7B0F507
:101F9000C00F13D0B0F5000F10D001250FE0386846
:101FA00040F40030386009E00198002104F064FB3F
:101FB00003E00098002104F0E9FB05467DB12E46C0
:101FC0002088C04300052DD4D4F8AC00B0F1007FC8
:101FD00021D00EDCA8B1B0F1807F10D116E0D9F885
:101FE0000010D4F8A82021F460011143C9F80010B2
:101FF000E6E7B0F1407F13D0B0F1806F10D001253B
:102000000FE0386840F40030386009E001980021A2
:1020100004F032FB03E00098002104F0B7FB054612
:1020200075B12E462068C04380011FD4E06CD8B142
:1020300010280FD0202812D0302815D0012514E008
:10204000D9F80010D4F8AC2021F0E0611143C9F8B0
:102050000010E7E7386840F40030386004E0019889
:10206000022104F009FB054675B12E462088C043C5
:10207000C0042BD4206EB0F5005F20D00DDCA0B1E1
:10208000B0F5805F0FD115E06F48001F0168E26C6A
:1020900021F0300111430160E8E7B0F5405F13D053
:1020A000B0F5804F10D001250FE0386840F40030C3
:1020B000386009E00198002104F0DEFA03E000989E
:1020C000002104F063FB05468DB12E462088C043F5
:1020D000800429D4606EB0F5403F23D010DC08B3F3
:1020E000B0F5803F14D0B0F5003F0FD115E0D8F81F
:1020F0000010226E21F4E0411143C8F80010E5E71A
:10210000B0F5802F0ED0B0F5A02F0BD001250AE03E
:102110000198012104F0B0FA03E00098012104F0D5
:1021200035FB054695B12E462088C04340042AD48D
:10213000D4F8B000B0F1405F23D010DC08B3B0F1A8
:10214000805F14D0B0F1005F0FD115E0D8F8001017
:10215000626E21F4E0211143C8F80010E4E7B0F109
:10216000804F0ED0B0F1A04F0BD001250AE00198AE
:10217000012104F081FA03E00098012104F006FB3C
:10218000054675B12E462088C04300041FD4206F39
:10219000D8B1B0F1805F0ED0B0F1005F10D0012552
:1021A00014E0D9F80010D4F8B02021F0E041114338
:1021B000C9F80010E7E7386840F40030386004E000
:1021C0000198012104F058FA054675B12E462068A1
:1021D000C043C0011ED4A06CD0B101280ED002288B
:1021E00011D0032814D0012513E0D8F80010226F75
:1021F00021F040511143C8F80010E8E7386840F476
:102200000030386004E00198022104F035FA0546F8
:102210007DB12E462068DFF838B0C043400256D466
:102220000C48016841F480710160FFF7FFF88246B5
:1022300018E00548001F0168A26C21F0030111435A
:102240000160E7E72C4402585044025858440258B1
:102250001044025800480258FFF7E8F8A0EB0A00C3
:1022600064282CD8FE480068C005F5D545BBFD485C
:102270000068B4F8B41000F4407001F44071884272
:102280000CD0F8480168026821F4407142F48032B1
:102290000260026822F4803202600160D4F8B40067
:1022A000B0F5807F1AD1FFF7C1F8824609E0FFF749
:1022B000BDF8A0EB0A0141F28830814201D9032523
:1022C00004E0E84800688007F1D53DB12E4620784B
:1022D000DFF894A3C043C00720D03BE0D4F8B4009B
:1022E000C0F3012103290ED0DBF8001021F47C514A
:1022F000CBF80010DB480168B4F8B420C2F30B023D
:1023000011430160E3E7DBF80020D84B22F47C5254
:1023100003EA10100243CBF80020EBE7E06F182827
:1023200016D005DCA0B1082808D0102804D10AE096
:1023300020280DD028280BD001250AE00198012182
:1023400004F09AF903E00098012104F01FFA054611
:1023500065B12E462078C04380071ED4A06F0628A2
:1023600019D2DFE800F0160C11161616DAF8001074
:10237000E26F21F038011143CAF80010EAE7019832
:10238000012104F079F903E00098012104F0FEF93D
:1023900005467DB100E001252E462078C043400768
:1023A0001FD4D4F89400062819D2DFE800F0160CE8
:1023B00011161616DAF80010A26F21F0070111436A
:1023C000CAF80010E9E70198012104F055F903E08B
:1023D0000098012104F0DAF90546A5B100E00125D5
:1023E0002E462078C04380062BD4D4F89000B0F15C
:1023F000405F24D011DC10B3B0F1805F15D0B0F194
:10240000005F10D116E0D9F80010D4F8942021F024
:1024100007011143C9F80010E3E7B0F1804F0ED077
:10242000B0F1A04F0BD001250AE00198002104F083
:1024300023F903E00098022104F0A8F9054695B1BC
:102440002E462078C04340062BD4D4F89C00B0F52B
:10245000406F24D011DC10B3B0F5806F15D0B0F50B
:10246000006F10D116E0DAF80010D4F8902021F0B7
:10247000E0411143CAF80010E3E7B0F5805F0ED0E9
:10248000B0F5A05F0BD001250AE00198002104F00F
:10249000F3F803E00098022104F078F9054695B1BD
:1024A0002E462078C04300062BD4D4F8A000B0F507
:1024B000C04F24D011DC10B3B0F5005F15D0B0F5DB
:1024C000804F10D116E0D9F80010D4F89C2021F4E8
:1024D000E0511143C9F80010E3E7B0F5004F0ED00A
:1024E000B0F5204F0BD001250AE00198002104F03F
:1024F000C3F803E00098022104F048F9054655B1FD
:102500002E462078C04300071ED4D4F88400B0F5CE
:10251000805F0AD00FE0D9F80010D4F8A02021F491
:1025200060411143C9F80010EBE70098022104F064
:102530002DF900B10126DAF80010D4F8842021F436
:1025400040511143CAF800102078C043C00613D48C
:10255000D4F89800B0F5807F05D10098022104F0EE
:1025600015F900B10126D9F80010D4F8982021F40B
:1025700040711143C9F800102068C043000316D40D
:10258000D4F8A40038B1B0F5803F09D0B0F5003FD1
:102590000BD001250AE00198002104F06DF803E05A
:1025A0000098022104F0F2F805468DB12E4620680D
:1025B000C043400322D4D4F88800B0F5801F11D066
:1025C000B0F5001F13D0B0F5401F15D0012514E061
:1025D000D9F80010D4F8A42021F440311143C9F8EF
:1025E0000010E4E7386840F40030386004E00098F8
:1025F000012104F0CBF805465DB12E462068C043AA
:10260000C0031CD4206D70B1B0F5803F10D00125FF
:1026100014E0DAF80010D4F8882021F440111143B6
:10262000CAF80010EAE7386840F40030386004E087
:102630000198022104F020F805462DB32E462068AB
:10264000C043800005D40098022104F09FF800B137
:1026500001262068C043800324D4D4F8800007E01A
:10266000004802587044025854440258CFFFFF00FB
:10267000B0B1B0F5807F0FD0B0F5007F10D0B0F5CD
:10268000407F0DD001250CE05A480168226D21F4ED
:10269000803111430160D2E7386840F4003038607F
:1026A000F5B32E462068C043C00207D4D8F8001006
:1026B000626F21F000411143C8F800102068C04348
:1026C000C00008D4DBF80010D4F8B82021F4804111
:1026D0001143CBF800102068C043800207D4D8F81B
:1026E0000010E26E21F080711143C8F800102068DC
:1026F000C04340000CD4DBF8001021F40041CBF8BB
:102700000010DBF80010D4F8BC201143CBF8001007
:102710002068C04308D43748016821F0405100E0E8
:1027200017E0626D114301602068C043000208D4C5
:10273000DAF80010D4F88C2021F440011143CAF8D3
:10274000001020790025C04300F0010028430AD082
:102750000FE0DAF80010D4F8802021F44071114322
:10276000CAF800109EE70198002103F085FF00B130
:1027700006462079C04300F00200284305D10198A5
:10278000012103F079FF00B106462079C04300F033
:102790000400284305D10198022103F06DFF00B128
:1027A00006462079C04300F00800284305D1009870
:1027B000002103F0EBFF00B106462079C04300F092
:1027C0001000284305D10098012103F0DFFF00B17C
:1027D00006462079C04300F02000054304D100984C
:1027E000022103F0D3FF00B916B10120BDE8FC9F20
:1027F0000020FBE74C440258704700002DE9F05FD1
:1028000004000D467ED0DFF84492D9F8000000F0B5
:102810000F00A8420CD2D9F8001021F00F01294373
:10282000C9F80010D9F8000000F00F00A84269D1E3
:102830002078874E40070AD52069316801F0700181
:10284000884204D9316821F0700101433160207859
:10285000DFF8008200070CD560694146D8F80020F7
:1028600002F07002904204D90A6822F0700202431A
:102870000A602078C0060CD5A0694146D8F800202F
:1028800002F4E062904204D90A6822F4E062024352
:102890000A602078DFF8C0B180060CD5E06959469F
:1028A000DBF8002002F07002904204D90A6822F09E
:1028B000700202430A60207880070AD5E068316818
:1028C00001F00F01884204D9316821F00F01014362
:1028D00031602078C0073DD03068A16820F4706076
:1028E000084330605A4960681839022818D0032814
:1028F00019D00968012819D04907002949DADFF8F9
:1029000050A100E045E0AAF1080ADAF8001021F031
:1029100007010143CAF80010FEF788FD074611E0E1
:1029200009688903E9E709688901E6E7C905E4E779
:10293000FEF77CFDC11B41F28830814202D90320A1
:10294000BDE8F09FDAF80000616800F03800B0EBF5
:10295000C10FEDD1207880070AD5E068316801F019
:102960000F01884204D2316821F00F010143316028
:10297000D9F80010484601F00F01A9420BD90168AF
:1029800021F00F0129430160006800F00F00A84208
:1029900001D00120D4E7207840070AD520693168AA
:1029A00001F07001884204D2316821F070010143C6
:1029B0003160207800070CD560694146D8F80020C6
:1029C00002F07002904204D20A6822F070020243C0
:1029D0000A602078C0060CD5A0694246D8F80010DD
:1029E00001F4E061884204D2116821F4E0610143FE
:1029F0001160207880060CD5E0695946DBF800208C
:102A000002F07002904204D20A6822F0700202437F
:102A10000A6000F079F83168C1F303220F498A5C3B
:102A200002F01F02D040326802F00F02895C0C4AAB
:102A300001F01F0120FA01F111600A4908600A48FB
:102A40000068BDE8F05FFEF72DBD000000200052D9
:102A5000184402581C44025820440258ECDD000877
:102A6000C8000024C4000024BC00002402480168FF
:102A700041F40021016070470044025800B500F0A5
:102A800043F80B4A11681268C1F303230949CB5C70
:102A900003F01F03D84002F00F02895C064A01F0E0
:102AA0001F0120FA01F11160044A1060084600BDC0
:102AB00018440258ECDD0008C8000024C4000024BB
:102AC00000B5FFF7DBFF05490968054AC1F30211AC
:102AD000515C01F01F01C84000BD00001C440258B9
:102AE000ECDD000800B5FFF7C9FF05490968054A94
:102AF000C1F30221515C01F01F01C84000BD00007C
:102B00001C440258ECDD0008434830B50068444CD2
:102B100010F03801414808D00211082903D01029CB
:102B20000BD018290BD0104630BD21688906FBD583
:102B30002168C1F3C101C84030BD3A4830BD3649B3
:102B400018310A68096802F00302334B1C33C1F3E1
:102B500005111B68304D03F0010324352D68C5F3C2
:102B6000CC0515FB03F300EE103AB8EE400AE9B3CA
:102B7000294BDFED2D0A2033B7EE001A62B1DFEDED
:102B80002B1A012A01D0022A3CD002EE101AF8EECC
:102B9000422A81EEA22A17E0226892060CD522680A
:102BA000C2F3C102D04001EE900AF8EE612A01EEB4
:102BB000901AF8EE611A05E001EE901ADFED1C2A7A
:102BC000F8EE611A82EEA12A1868C0F3080001EE3F
:102BD000900A1868F8EE611A40EE201A31EE810A68
:102BE00022EE000AC0F34620401C00E011E000EE97
:102BF000900AF8EE600A80EE201ABCEEC10A10EED0
:102C0000100A30BD01EE901ADFED0A2AF8EE611AC3
:102C1000D8E7002030BD0000104402580090D003D7
:102C20000044025840787D01000000390024744AB5
:102C30000024744C20BCBE4B064810B5006840050B
:102C400006D5FFF7D9FD03494FF48060091D0860E0
:102C500010BD0000644402582DE9F05F040079D0F3
:102C60002078DFF8F8A3FE4EFE4DC00747D0DAF813
:102C70000000316800F03800102815D0182803D162
:102C800001F0030002280FD06068B0F5803F12D039
:102C900010B1B0F5A02F18D0286820F4803028603B
:102CA000286820F4802009E02868800327D5606820
:102CB0000028D4D023E0286840F480302860606881
:102CC00088B1FEF7B3FB074609E0286840F480208E
:102CD0002860F0E7FEF7AAFBC01B642872D82868BA
:102CE0008003F7D50BE0FEF7A1FB074604E0FEF7F3
:102CF0009DFBC01B6428F1D828688003F7D4207896
:102D000041F20309D84F800766D5DAF80000316830
:102D100010F038000ED0182801D188070AD0E068DA
:102D200080B3296821F0190101432960FEF77EFB79
:102D300080462EE02868400702D5E06800288ED043
:102D40002868E16820F0190008432860FEF76EFB50
:102D5000804606E0D8E0FEF769FBA0EB08000228F9
:102D6000BCD828684007F6D5FEF75AFB48451AD864
:102D70002069402811D0396821F47C3141EA0030C3
:102D8000386029E016E0FEF751FBA0EB08000228AE
:102D9000A4D828684007F6D5E6E7386820F47C30E8
:102DA00040F40030ECE73868217C20F0FE4040EA37
:102DB0000160E5E7286820F001002860FEF736FB97
:102DC000804606E000E1FEF731FBA0EB0800022898
:102DD00084D828684007F6D42078C0065AD5DAF897
:102DE0000000316800F03800DFF870B20828ABF15D
:102DF000040B10D0182803D101F0030001280AD0D9
:102E0000E0690028286836D040F080002860FEF78E
:102E10000DFB804621E02868C00521D5E0698028A7
:102E200072D11DE0206A20281FD0396821F0F841B6
:102E300041EA806038602DE0DBF8001094F8202033
:102E400021F07C5141EA0261CBF8001022E0FEF74C
:102E5000EDFAA0EB080002289AD82868C005F6D53C
:102E6000FEF7DEFA4845E7D8DCE7386820F0F8409E
:102E700040F08040DEE720F080002860FEF7D6FAC0
:102E8000074604E0FEF7D2FAC01B0228A0D8286843
:102E9000C005F7D42078000728D5714960694C3106
:102EA000002888460846096810D041F001010160F9
:102EB000FEF7BCFA074604E0FEF7B8FAC01B02288A
:102EC00086D8D8F800008007F6D50FE021F0010180
:102ED0000160FEF7ABFA074604E0FEF7A7FAC01B55
:102EE000022871D8D8F800008007F6D42078800630
:102EF00023D5A0690028286810D040F480502860AD
:102F0000FEF794FA074605E038E1FEF78FFAC01B9A
:102F1000022859D828688004F7D50EE020F48050A4
:102F20002860FEF783FA074604E0FEF77FFAC01B2D
:102F3000022849D828688004F7D4207840074DD566
:102F4000DFF82881D8F8001041F48071C8F800102B
:102F5000FEF76CFA074604E0FEF768FAC01B642827
:102F600032D8D8F80000C005F6D53D4FA0684837E4
:102F700001280AD008B1052813D0386820F00100D4
:102F80003860386820F0040002E0386840F0010042
:102F90003860A06841F2883990B1FEF747FA804660
:102FA0000AE0386840F004003860EEE7FEF73EFAC9
:102FB000A0EB0801494507D838688007F6D50DE031
:102FC000FEF734FA804606E083E0FEF72FFAA0EB26
:102FD000080149457DD838688007F6D4616AD9B3BD
:102FE000DAF800004FF6F87BDFF8748008F1080883
:102FF000C0F3C200032808F10409A8F1040A69D04B
:103000002868022920F08070286003D0FEF70EFAAD
:10301000044688E0FEF70AFA074604E0FEF706FADF
:10302000C01B02287CD828688001F7D4306840F2A1
:10303000F3318843E16A40EA0110A16A0843306035
:1030400094F83400218E4002491EA0F5007080B231
:10305000C1F3080108430BE0B3E00000104402583C
:1030600028440258004402580444025800480258B8
:10307000218F4FF4FE02491E02EA0141084394F8F1
:103080003C101202491E02EA01610843C8F8000020
:10309000DAF80010504621F00101CAF80010D9F802
:1030A0000020A36C22EA0B0242EAC302C9F8002006
:1030B000DAF80010226C21F00C011143CAF800105C
:1030C000DAF80010626C21F002011143016001681E
:1030D00001E025E02BE041F480310160016841F41A
:1030E00000310160016841F480210160016841F014
:1030F00001010160286840F080702860FEF796F9B1
:10310000044604E0FEF792F9001B022808D828685C
:103110008001F7D555E0FEF789F9001B022802D996
:103120000320BDE8F09F28688001F4D449E03268AC
:10313000D8F80000012921D0A36A02F003019942C6
:103140001CD1E16AC2F30512914217D1216BC0F381
:103150000802491E8A4211D1616BC0F34622491E02
:1031600091420BD1A16BC0F30642491E914205D199
:10317000E16BC0F30660491E814201D00120D0E717
:10318000D9F800004F46A16CC0F3CC00814218D0A2
:10319000DAF80000564620F00100CAF80000FEF7F9
:1031A00045F90546FEF742F9A842FBD03868A16C04
:1031B00020EA0B0040EAC1003860306840F00100AE
:1031C00030600020ADE790F8810070472DE9F041B4
:1031D000040027D00025A562554F2068554A564B5C
:1031E000B84206D0904204D0984202D0E1680F293C
:1031F00018D8E16B012606EB511CE1680831C908BB
:10320000B84201FB0CF105D0904203D0984201D0A6
:10321000082907D8B84203D0904201D0984204D17F
:10322000102902D90120BDE8F08194F8810020B96D
:10323000204684F8805000F081F8022084F8810054
:103240002068016821F0010101602068816801F4B3
:10325000F812A169B1F1806F10D16168B1F5800FEA
:1032600001D019B10AE0A16B21B107E0A16BB1F166
:10327000805F03D1016841F48051016060684002C1
:1032800009D5E068072806D320680168236D21F47A
:103290008071194303E02068016821F480710160A6
:1032A000A16AE0690843E16B11430843E168084300
:1032B00021688860616A606BA2690843A16B114351
:1032C00008432169084361690843216A084361682A
:1032D0000843E16C0843A1680843A16C0843A16D51
:1032E00008432168C860606868B92068816821F473
:1032F000C05141F4006181602068816821F4C0619F
:1033000041F4806181602068016D21F00101016557
:103310006068400206D52068C168626D21F00041F6
:103320001143C160C4F8845084F8816000207AE7BA
:103330000030014000380040003C00402DE9F041E1
:10334000B6B00446142130A8FDF772F8C0216846D3
:10335000FDF76EF84F490526206802274E4D0024E0
:10336000884268D1811404970020B846CDE9001046
:103370005020059706970F46CDE902608020CDE9E1
:103380000704099468461891FEF762FD08B1FDF73D
:103390003EFC41480830016841F48041016000680A
:1033A00000F480403590286840F0040028602868C8
:1033B00000F004003590286840F00200286028687A
:1033C00000F002003590286840F00100286028686D
:1033D00030A9CDF8C080454600F00100CDE9318428
:1033E0003394CDE934602D48FDF71AFF309730A9AA
:1033F000CDE931542A48CDE93346FDF711FF4FF4AA
:1034000000703090CDE93154264830A9CDE93346DB
:10341000FDF706FF244E30A930950125CDE9315442
:1034200030463394FDF7FCFE309530A9CDE9315498
:103430003046339428E01D49884227D1411419941D
:103440000020CDE900106846FEF702FD08B1FDF747
:10345000DEFB11481030016841F400510160006842
:1034600000F400503590286840F01000286028686B
:1034700030A900F0100035904FF483503090CDE922
:1034800031740B48CDE93346FDF7CAFE36B0BDE8CE
:10349000F081000000380040E04402580008025863
:1034A0000004025800000258002402580034014071
:1034B000001002582DE9F84F1D4617468A4604466B
:1034C000FDF7B4FF064694F8810001283ED1BAF119
:1034D000000F6ED0002FFCD094F88000012835D06A
:1034E0004FF0010984F88090032084F881004FF0A8
:1034F0000008C4F88480C4F85CA0A4F86070A4F844
:103500006270C4F86480A4F86880A4F86A80C4F883
:103510007480C4F87080A068B0F5C02F206818D0FF
:10352000C16821F4C02141F40031C16020684168C4
:103530006FF30F01394341602068016841F00101D8
:1035400001606068B0F5800F08D00CE00220BDE893
:10355000F88F016841F400610160E7E720680168C5
:1035600041F400710160E0680F281AD81EE020685D
:10357000416989070BD5E16D09680162E06D001DA5
:10358000E065B4F86200401EA4F8620009E0FDF7AF
:103590004DFF801BA84202D3681C02D094E0002D8E
:1035A0002FD0B4F862000028E1D171E007282AD8B2
:1035B0006AE087E02068416989071BD5B4F862108A
:1035C00001290BD9E16B49B1E16D09680162E06D38
:1035D000001DE065B4F86200801E08E0E16D098816
:1035E0000184E06D801CE065B4F86200401EA4F820
:1035F000620008E0FDF71AFF801BA84202D3681C96
:1036000001D061E0B5B3B4F862000028D2D13FE048
:103610002068416989072ED5B4F8621003290CD9B6
:10362000E16B402909D9E16D09680162E06D001D77
:10363000E065B4F86200001F19E0B4F862100129D7
:103640000BD9E16B49B1E16D09880184E06D801C03
:10365000E065B4F86200801E09E0E16D097880F849
:103660002010E06D401CE065B4F86200401EA4F834
:10367000620009E028E0FDF7D9FE801BA84202D3D2
:10368000681C01D020E0FDB1B4F862000028BFD171
:1036900000222B4608212046009603F06FF928B13E
:1036A000D4F8840040F02000C4F88400204603F0E1
:1036B00007F984F8819084F88080D4F88400002889
:1036C0003FF445AF012042E7204603F0F9F8D4F873
:1036D000840040F48070C4F8840084F88190032052
:1036E00084F8808033E700002DE9FF4F0446C06B6B
:1036F00081B01D4692464009401C0E9F1FFA80F97A
:10370000FDF794FE804694F881002E46012836D1BC
:10371000029800287ED0BAF1000FFBD0002DF9D01E
:1037200094F8800001282AD0012084F88000052028
:1037300084F881004FF0000BC4F884B0C4F864A092
:10374000A4F86A50A4F868500299E165A4F86250A0
:10375000A4F86050C4F870B0C4F874B02068C168B0
:1037600021F4C021C160A8492068884205D0A7493A
:10377000884202D0A649884205D1102104E00220E7
:1037800005B0BDE8F08F08218A4641686FF30F014C
:10379000294341602068016841F0010101606068CF
:1037A000B0F5800F04D12068016841F40071016018
:1037B000E0680F2841D94FEA9A0A3AE02068416947
:1037C000890711D586B106EB0A01A9420CD9E16D32
:1037D00009680162E06D001DE065B4F86200401EFA
:1037E000A4F86200B4F86260206841690DB34269D0
:1037F000D20703D14D4511D209040FD5006B616E7C
:103800000860606E001D6066B4F86A00401EA4F88F
:103810006A0000E0E6E0B4F86A500AE0FDF706FE50
:10382000A0EB0800B84202D3781C02D0DCE0002FE5
:1038300052D056EA0500C1D1B8E007287AD94FEA3C
:103840005A0A4BE020684169890711D586B106EB19
:103850000A01A9420CD9E16D09880184E06D801C40
:10386000E065B4F86200401EA4F86200B4F862603B
:10387000206841691DB34269D20709D0008E616E8C
:103880000880606E801C6066B4F86A00401E12E01A
:103890004D4515D20A0413D5008E616E0880606E06
:1038A000801C60662168098E0180606E801C6066E5
:1038B000B4F86A00801EA4F86A00B4F86A500DE0FB
:1038C000012D01D18904D9D4FDF7B0FDA0EB08008A
:1038D000B84202D3781C01D086E067B356EA0500EF
:1038E000B0D163E020684169890712D58EB106EB3B
:1038F0000A01A9420DD9E16D097880F82010E06D28
:10390000401CE065B4F86200401EA4F86200B4F800
:103910006260206841696DB14269D2070CD090F8AD
:103920003000616E0870606E401C6066B4F86A001A
:10393000401E24E037E057E04D4525D20A0423D548
:1039400090F83000616E0870606E401C60662168FF
:1039500091F830100170606E401C6066216891F82B
:1039600030100170606E401C6066216891F8301064
:103970000170606E401C6066B4F86A00001FA4F815
:103980006A00B4F86A500EE0042D02D211F4C04F60
:10399000C5D1FDF74BFDA0EB0800B84202D3781C5F
:1039A00001D021E007B356EA05009BD100223B4637
:1039B00008212046CDF8008002F0E0FF28B1D4F8BD
:1039C000840040F02000C4F88400204602F078FF14
:1039D000012084F8810084F880B0D4F884000028A5
:1039E0003FF4CEAE0120CBE6204602F069FFD4F8CA
:1039F000840040F48070C4F88400012084F88100C1
:103A0000032084F880B0BBE600300140003800405D
:103A1000003C0040024A136883430B431360704725
:103A2000040400584FF0E0210428086903D020F076
:103A300004000861704740F00400FAE7401EB0F14E
:103A4000807F10B501D3012010BD4FF0E0246061EC
:103A50000F21601704F000FD0020A0610720206105
:103A6000002010BD7047704770470000F0B590F817
:103A70003C20012A3CD0012580F83C50022280F8ED
:103A80003D2003685A689C681A4E1B4FB34201D010
:103A9000BB4204D122F4700C4A6842EA0C0222F0C4
:103AA000700C0A6842EA0C025A600268B24213D0F3
:103AB000B2F1804F10D0114B9A420DD0104B9A4268
:103AC0000AD0104B9A4207D0BA4205D00E4B9A4208
:103AD00002D00E4B9A4204D1896824F08003194326
:103AE000916080F83D50002180F83C100846F0BD00
:103AF0000220F0BD0000014000040140000400402D
:103B000000080040000C0040001800400040014048
:103B100010B5040003D094F83D0010B107E0012077
:103B200010BD002084F83C00204600F023F802205D
:103B300084F83D002068211D03F082F9012084F8FB
:103B4000480084F83E0084F83F0084F8400084F880
:103B5000410084F8420084F8430084F8440084F86B
:103B6000450084F8460084F8470084F83D000020B2
:103B700010BD000008B50068104A1149904211D1EB
:103B8000086840F01000086008680022052100F075
:103B9000100000903620FDF70FFDBDE808403620EC
:103BA000FDF7FCBC074A904207D1086840F080004E
:103BB0000860086800F08000009008BD0010004018
:103BC000E8440258001C004090F83D10012901D043
:103BD00001207047022180F83D100168CA6842F058
:103BE0000102CA6000681349884214D0B0F1804FC6
:103BF00011D0114988420ED0104988420BD010498B
:103C0000884208D00F49884205D00F49884202D027
:103C10000E49884207D181680D4A1140062906D015
:103C2000B1F5803F03D0016841F00101016000203F
:103C30007047000000000140000400400008004000
:103C4000000C00400004014000180040004001400A
:103C5000070001002DE9F04104000D4603D094F85F
:103C60003D0018B108E00120BDE8F081002084F893
:103C70003C00204600F046F8022084F83D00206811
:103C800081681F4A114081602068211D03F0D8F827
:103C9000206881688269066A2B68AF6926F0AA06E7
:103CA0000B4340F203318A43A96842EA0722EF69D5
:103CB00011434FF6FC429143EA6841EA07212F6A1B
:103CC0000A432969090141EA073111436A686D69AC
:103CD000836046EA05152A432068816120680262F4
:103CE000012084F8480084F83E0084F83F0084F8FE
:103CF000440084F8450084F83D000020B4E700004B
:103D0000F8BFFEFFF0B587B0044614216846FCF703
:103D10008FFB4E480225216800244C4B08384C4A42
:103D2000B1F1804F4B4E19D04B4FB94246D1196873
:103D300041F002011960196801F002010591016862
:103D400041F0040101600068694600F0040005903C
:103D5000C02000904148CDE9015474E0196841F059
:103D600001011960196801F001010591016841F034
:103D700001010160016801F001010591016841F054
:103D80000201016000680127694600F00200059009
:103D90004FF400400090CDE90154CDE903471046AF
:103DA000FDF73EFA08200090CDE90154CDE9034724
:103DB00069463046FDF734FA07B0F0BD284FB942E6
:103DC00028D1196841F004011960196801F0040153
:103DD0000591016841F008010160016801F00801E6
:103DE0000591016841F0020101600068694600F038
:103DF00002000590B8140090CDE901541948CDE9AE
:103E00000345FDF70DFA80200090CDE90154694685
:103E1000304618E0144EB142CED1196841F0080185
:103E20001960196801F008010591016841F001016C
:103E300001600068694600F00100059003200090D1
:103E4000CDE901541046CDE90345B3E7E8440258F3
:103E50000000025800040258000400400008025804
:103E600000080040000C0258000C004070B590F8AB
:103E70003E50044690F83F3090F8442090F84500BA
:103E8000022621B104290BD0012D16D10FE0012DFE
:103E900013D1012A11D184F83E6084F8446016E001
:103EA000012B0AD1012808D184F83F600DE0012BD5
:103EB00003D1012A01D1012801D0012070BD84F86D
:103EC0003E6084F83F6084F8446084F8456091B1B6
:103ED000042904D020680122002103F015F820688D
:103EE0000122042103F010F82068016841F001016B
:103EF0000160002070BD012220680021F2E77047B8
:103F00002DE9F04104460068C66805694FF00007D6
:103F1000A90713D5B10711D5F91E0161012020773A
:103F2000206880698007204602D0FFF7E8FF04E0A0
:103F300000F0B6F8204600F078F92777680716D524
:103F4000700714D521686FF0040008610220207703
:103F50002068806910F4407F204602D0FFF7CFFF31
:103F600004E000F09DF8204600F05FF9277728076D
:103F700015D5300713D521686FF0080008610420BB
:103F800020772068C0698007204602D0FFF7B7FF7E
:103F900004E000F085F8204600F047F92777E806AE
:103FA00016D5F00614D521686FF0100008610820BE
:103FB00020772068C06910F4407F204602D0FFF7C8
:103FC0009EFF04E000F06CF8204600F02EF9277701
:103FD000E80708D0F00706D021686FF001000861FB
:103FE000204600F0B1F9280601D4A80408D530060F
:103FF00006D521686FF4025008612046FFF733FDB3
:10400000E80508D5300606D521686FF48070086190
:104010002046FFF727FD680608D5700606D52168FB
:104020006FF040000861204600F08FF9A8060AD51D
:10403000B00608D521686FF0200008612046BDE871
:10404000F041FFF711BDBDE8F081000010B586B06A
:10405000044614216846FCF7EBF90E4920688842B3
:1040600015D10D48016841F0010101600068694601
:1040700000F00100059040200090022001900020F7
:1040800002900390092004900448FDF7C9F806B097
:1040900010BD0000001C0040E0440258000002581F
:1040A000704770B5044690F83C0000260D46012884
:1040B0000BD0012084F83C000C2A4AD007DC82B1E6
:1040C000042A20D0082A06D131E0022070BD102A2F
:1040D00053D0142A63D00126002084F83C003046D7
:1040E00070BD206802F01EFF2068816941F0080160
:1040F00081612068816921F0040181612068816902
:104100002A69114311E0206802F05AFF2068816992
:1041100041F4006181612068816921F480618161DD
:10412000206881692A6941EA02218161D4E7206817
:1041300002F08EFF2068C16941F00801C16120686A
:10414000C16921F00401C1612068C1692A69114374
:1041500011E0206802F0C4FF2068C16941F40061E9
:10416000C1612068C16921F48061C1612068C169B1
:104170002A6941EA0221C161AEE7206802F0EAFF44
:104180002068416D41F0080141652068416D21F0D2
:10419000040141652068416D2A69114311E02068DE
:1041A00003F010F82068416D41F40061416520681A
:1041B000416D21F4806141652068416D2A6941EAC1
:1041C0000221416588E710B5040003D094F83D0052
:1041D00010B107E0012010BD002084F83C0020460B
:1041E00000F022F8022084F83D002068211D02F032
:1041F00027FE012084F8480084F83E0084F83F0040
:1042000084F8400084F8410084F8420084F84300B8
:1042100084F8440084F8450084F8460084F8470098
:1042200084F83D00002010BD7047704730B504464B
:1042300069B104290ED008290FD00C2910D01029FB
:1042400011D094F84300012810D0012030BD94F81B
:104250003E00F8E794F83F00F5E794F84000F2E7F5
:1042600094F84100EFE794F84200ECE70220E9B34C
:10427000042948D0082949D00C294AD010294BD00C
:1042800084F843000122206802F03EFE24492068A1
:10429000244A254B884209D0904207D0984205D045
:1042A000224DA84202D0224DA84203D1456C45F4CC
:1042B000004545642068884212D0B0F1804F0FD08D
:1042C0001C4988420CD01C49884209D01B498842AD
:1042D00006D0904204D01A49884201D0984209D1B0
:1042E0008168184A1140062908D000E008E0B1F5BD
:1042F000803F03D0016841F001010160002030BD22
:1043000084F83E00BEE784F83F00BBE784F8400035
:10431000B8E784F84100B5E784F84200B2E700004E
:104320000000014000040140004001400044014001
:10433000004801400004004000080040000C00401C
:1043400000180040070001007047704790F8841083
:10435000012918D0012180F884102421C0F8881088
:1043600001680A680B6823F001030B6022F000511A
:1043700000224266036819602021C0F8881080F886
:10438000842010467047022070477047704770B510
:10439000044690F8840001281DD0012084F8840090
:1043A0002420C4F8880020680568026822F0010211
:1043B00002602068826822F060620A4382602046C0
:1043C00003F046F8206805602020C4F8880000202B
:1043D00084F8840070BD022070BD70B5044690F86A
:1043E000840001281DD0012084F884002420C4F812
:1043F000880020680568026822F0010202602068D7
:10440000826822F060420A438260204603F020F86E
:10441000206805602020C4F88800002084F884000B
:1044200070BD022070BD7047704770472DE9F041A4
:1044300007680446F8693968BA6840F60F031842FD
:104440004FF000054FF002060AD183067ED501F039
:10445000200302F0805C53EA0C0377D0616F7DE1AA
:10446000D34BDFF850C3134001EA0C0C53EA0C0C99
:104470006CD05FEAC07C0CD05FEAC15C09D54FF01C
:10448000010CC7F820C0D4F8907047F00107C4F8B9
:104490009070870709D5D70707D027683E62D4F800
:1044A000906046F00406C4F8906046070AD5D60727
:1044B00008D0276804263E62D4F8906046F00206D1
:1044C000C4F8906006070CD501F020061E4308D002
:1044D000266808233362D4F8903043F00803C4F808
:1044E000903003050BD54B0109D526684FF40063C6
:1044F0003362D4F8903043F02003C4F89030D4F8FD
:104500009030002B3DD0800609D501F0200002F04C
:104510008051084303D0616F09B120468847D4F821
:10452000900021688968490602D410F0280F2AD02B
:10453000204603F071F82068806840061ED5206888
:10454000083050E8001F21F0400100E021E040E881
:104550000012002AF3D1D4F8800078B196490165A1
:10456000D4F88000FCF714FD00280AD0D4F88000AD
:10457000016D00E02046BDE8F04108472046FFF706
:1045800054FFBDE8F0812046FFF74FFFC4F890507C
:10459000F7E7D4F86CC02023BCF1010F7ED15FEAAD
:1045A000C06C7BD55FEAC16C78D51020386220687A
:1045B0008068400673D5D4F880208049106888420E
:1045C00034D07E491831884230D07C49303188421D
:1045D0002CD07A494831884228D0784960318842C5
:1045E00024D076497831884220D07449903188426D
:1045F0001CD07249A831884218D07149884215D020
:104600006F491831884211D06D49303188420DD040
:104610006B494831884209D069496031884205D0E8
:1046200067497831884201D06549903140684FF43C
:1046300080770004000C40D0B4F85C1081423CD973
:10464000A4F85E00D069B8422FD0206850E8001F5F
:1046500021F4807140E80012002AF6D12068083069
:1046600050E8001F21F0010140E80012002AF5D1B6
:104670002068083050E8001F21F0400140E8001297
:10468000002AF5D1C4F88C30E566206850E8001F98
:1046900021F0100140E80012002A01E049E019E091
:1046A000F3D1D4F88000FCF7C3FA2667B4F85C00B5
:1046B000B4F85E10401A81B208E0B4F85C10814290
:1046C0007FF466AFD069B842FAD126672046FFF77B
:1046D0005CFE56E7B4F85C00B4F85E10401A81B294
:1046E000B4F85E000028F4D00029F2D0206850E829
:1046F000002F22F4907240E80027002FF6D12C4FB3
:10470000FF432068083050E8002F3A4040E8002C72
:10471000BCF1000FF5D1C4F88C30E5666567206800
:1047200050E8002F22F0100240E80023002BF6D1C1
:10473000CBE7C60209D5560207D54FF48010386280
:104740002046BDE8F041FFF76FBE06060AD501F02E
:10475000800602F40002164304D0A16F00297FF402
:1047600009AF0EE7420611D54A060FD5204601686B
:1047700051E8002F22F0400241E80024002CF6D13D
:10478000C0F88830856700F033FBFAE6020206D5F0
:104790004A0004D52046BDE8F041FFF744BEC00101
:1047A00097D5002995DA2046BDE8F041FFF7EEBD28
:1047B00001000010200100040976000810000240EA
:1047C0001004024010B5040003D0D4F8880010B1E2
:1047D00007E0012010BD002084F88400204600F08E
:1047E00027F82420C4F888002068016821F001011E
:1047F0000160A06A10B1204602F04CFE204603F092
:1048000099F90128E6D02068416821F4904141607F
:104810002068816821F02A0181602068016841F0E8
:10482000010101602046BDE8104002F097BE000083
:104830002DE9F04FB7B00446142130A8FBF7F8FD7E
:10484000C0216846FBF7F4FD20680225A34C082729
:10485000A1494FF00008A14E083CDFF884B288421D
:10486000DFF880A240D10020CDF878800221CDE988
:1048700000106846FDF7ECFA08B1FCF7C8F930689B
:1048800040F400203060306800F40020359020684B
:1048900040F008002060206800F008003590206893
:1048A00040F002002060206830A9444600F0020079
:1048B000359001203090CDE93158CDE93387584605
:1048C000FCF7AEFC4FF400703090CDE93154CDE9E7
:1048D000334730A95046FCF7A3FC002205213420C1
:1048E000FCF76AFE342045E07F494FF00409884216
:1048F00045D10021CDF878800220CDE9000168463D
:10490000FDF7A6FA08B1FCF782F9306840F4801090
:104910003060306800F480103590206840F002006C
:104920002060206800F002003590206840F0080008
:104930002060206830A9444600F0080035904FF40C
:10494000005030900E20CDE93158CDE933805046EB
:10495000FCF766FCCDF8C09030A9CDE93154CDE923
:1049600033475846FCF75CFC002205213520FCF754
:1049700023FE3520FCF712FE37B0BDE8F08F5B490F
:10498000884226D10021CDF87C800120CDE90001AC
:104990006846FDF75DFA08B1FCF739F94F48083071
:1049A000016841F010010160006800F010003590CE
:1049B000206840F002002060206830A900F002006A
:1049C00035904FF4404081E82101CDE933895046CC
:1049D0003CE047494FF0070988423AD10020CDF822
:1049E00078800221CDE900106846FDF731FA08B160
:1049F000FCF70DF9306840F400303060306800F4A6
:104A000000303590206840F001002060206800F000
:104A100001003590206840F008002060206830A92F
:104A20003097444600F008004E46CDE93158CDF8A5
:104A3000CC80CDE934902F48FCF7F2FB2020309059
:104A4000CDE93154CDE9334630A95846FCF7E8FBAF
:104A500092E7294988428FD10020CDF87880022141
:104A6000CDE900106846FDF7F3F908B1FCF7CFF87F
:104A7000306840F480203060306800F48020359049
:104A8000206840F002002060206800F002003590AD
:104A9000206840F008002060206830A94C4600F0F3
:104AA000080035904FF4006081E82101CDE9338999
:104AB0005046FCF7B5FB30A94FF4807081E8210126
:104AC000CDE933845846FCF7ABFB002205212720B3
:104AD000FCF772FD27204DE7004C0040E8440258E7
:104AE000000C025800040258005000400010014021
:104AF00000440040000002580048004030B4D0F8A4
:104B00008C30202B02D0022030BC7047A9B1A2B15A
:104B10000023C3660A4C0368A3420BD05B681B02E8
:104B200008D5036853E8004F44F0806443E800452B
:104B3000002DF6D130BC03F0CBB90120E4E7000032
:104B4000000C00582DE9F8436E4904460068002621
:104B50006D4D884235D1E8786C4AAA2809D0298958
:104B6000FF2903D829895054491C2981552802D08E
:104B700021E02E81F6E71FFA81FC4FF6FF70644FAB
:104B8000002100EACC009146A88012E019F801301B
:104B90000020C0F1070200EBC10823FA02F2401C1A
:104BA00002F00102C0B2082807F80820F1D3491C1E
:104BB00089B26145EAD3544901225648C91CFFF71E
:104BC0009DFF55494FF080572068DFF8508188429B
:104BD0002CD14F4A6978803A0A2902D028693F28A7
:104BE00019D3286900234A49803916544C486A462B
:104BF0000096006807F070FE454840212E6180381D
:104C0000FBF716FC009858B1C8F80070BFF34F8F3F
:104C1000BFF36F8F04E00D2902D01154401C2861AE
:104C2000394901223F48491CFFF768FF3E49206887
:104C300088422BD1364A2978C03A0A2902D0E8683E
:104C40003F2819D3E86800233149C0391654374842
:104C50006A460096006807F03FFE2D484021EE604E
:104C6000C038FBF7E5FB009858B1C8F80070BFF3F7
:104C70004F8FBFF36F8F04E00D2902D01154401CF9
:104C8000E860214901222A48FFF738FF29492068B6
:104C9000884234D11E4AA978403AFE2910D068696A
:104CA00030B1FD290FD03F2802D21154401C686159
:104CB000BDE8F843144901221F48891CFFF71EBFB5
:104CC00001201170F3E71154401C68611B48002358
:104CD0000F496A4600964039006807F0FDFD0C4810
:104CE00040216E614038FBF7A3FB00980028DFD01D
:104CF000C8F80070BFF34F8FBFF36F8FD8E7BDE8E0
:104D0000F8830000001001409C000024E8600124AA
:104D1000A8620124D46C01240048004004ED00E0A6
:104D200008000024FC6D0124004C00400C0000240D
:104D3000AC6B012400500040406C012410000024A2
:104D40002DE9F8430446D0F888001F4615460E4664
:104D5000202802D00220BDE8F883AEB1A5B1002022
:104D6000C4F890002120C4F888001834FCF75EFBDA
:104D7000A5878146E5874FF0200854F8100C183CB1
:104D8000B0F5805F02D003E00120E4E7206910B1B4
:104D90003546002610E000250EE08021204603F075
:104DA0001FF9B8B9D5B115F8010B21688862B4F8BC
:104DB0005600401EA4F85600B4F856004B464FF07B
:104DC000000200970028E8D14FF04001204603F090
:104DD00007F940B1C4F888800320BCE736F8020B1D
:104DE000C0F30800E1E7C4F888800020B3E70000C2
:104DF00000680349884202D102A003F005BB704756
:104E00000010014055415254205472616E736D6917
:104E10007373696F6E20436F6D706C657465210AE2
:104E200000000000FEE7000000B5944AF0EE605A72
:104E3000B0EE406A2DED068BB0EE415A92ED060AB7
:104E4000D2ED060A8E4820EE208A92ED060AD2EDB7
:104E5000070A006820EE209A92ED060AD2ED080AB1
:104E600020EE20AA92ED060A92ED090A92ED070AB9
:104E7000D2ED070A60EE207A92ED070A92ED080A59
:104E800092ED070AD2ED090A60EE209A92ED080A27
:104E9000D2ED080A20EE207A92ED080AD2ED090A36
:104EA00060EE208A92ED090AD2ED090AD06260EE26
:104EB000206AD06A916A9FED730A884206D2906A8E
:104EC0004FF6FF71081AD16A084402E0D06A916A6D
:104ED000401A00EE900AD06AF8EE600AC0EE804AEE
:104EE000906221EEA10A02EE020A02EEA20A04F08A
:104EF00009FF61EE801A22EE002A62EE802A23EE7C
:104F0000030A03EEA30A04EE040A04F0FBFE79EEA2
:104F1000CA0AB0EE000A20EE803A79EE280A60EE66
:104F2000800A38EE670A30EE470A70EE263A22EE23
:104F3000830A22EE231A01EEE30A02EEE01A61EE82
:104F4000A00A42EE430AB5EEC01AF1EE10FA37D0CD
:104F5000B5EEC00AF1EE10FA32D0F5EEC00AF1EE6D
:104F600010FA2DD0DFED481A92ED032A61EE212AC6
:104F700002EEA42A60EE212A82ED032A92ED042A91
:104F800002EEA42A82ED042A20EEA12AD2ED051A0F
:104F900042EE241AC2ED051AF6EE001A40EE215A2E
:104FA00092ED040A01EE216A00EEA15A92ED031A75
:104FB00075EE805A92ED050A36EE016A35EE005A1A
:104FC00092ED070AD2ED080A92ED063A26EE400A63
:104FD00092ED072AD2ED081AD2ED092A00EEE50A71
:104FE000D2ED090A00EEC50AD2ED080A00EE243A15
:104FF00092ED060A20EE060A00EE850AD2ED090AB5
:1050000000EEE50AD2ED070A00EE242A92ED060A28
:1050100020EE250A00EEC50AD2ED090A00EE860A46
:10502000D2ED070A40EE241A92ED060A20EE050A98
:1050300000EEA50AD2ED080A00EEC60A40EE242AC8
:1050400023EE030A02EE020A01EEA10A02EEA20A10
:1050500004F058FE63EE000AC2ED060A62EE000A92
:10506000C2ED070A61EE800A22EE800AC2ED080A4C
:1050700082ED090ABDEC068B00BD00005000002443
:105080000000002400409C466F12833A0E4991EDC7
:10509000000A80ED000A91ED010A80ED010A91ED10
:1050A000020A80ED020A91ED030A80ED030A91EDF8
:1050B000040A80ED040A91ED050A80ED050A91EDE0
:1050C000060A80ED060A70470C37002410B5044626
:1050D000194800F039F818499FED180ADFED181A41
:1050E000D1ED050A60EE800A80EEA11AD1ED040A26
:1050F00020EE802AC2EE210A91ED032A22EE002A38
:1051000082EE210AD1EC031A183191EC033AFFF731
:105110008BFE0C4890ED060A84ED000A90ED070A1C
:1051200084ED010A90ED080A84ED020A90ED090A67
:1051300084ED030A10BD000078530024DB0F4940C2
:10514000000034435000002430B58DB0044603A95C
:10515000684606AA04F048F93E4864219DED000A1D
:105160000AAB80ED000A9DED010A07AA80ED010A55
:105170009DED020A80ED020A9DED030A80ED030A0F
:105180009DED040A80ED040A9DED050A80ED050AF7
:105190009DED060A80ED060A0C3004F0D5F92D4A83
:1051A0002D48079B0C3A2D49834220DA089B834205
:1051B0001DDA099B83421ADA8868632817DB9DEDA4
:1051C0000A0A002082ED000A9DED0B0A012582EDFE
:1051D000010A9DED0C0A82ED020A9FED210A81ED84
:1051E000030A81ED040A81ED050A886004E08868FD
:1051F000642801DA401C88609DED000A002D84EDD2
:10520000000A9DED010A84ED010A9DED020A84ED7C
:10521000020A9DED030AD2ED000A30EE600A84ED29
:10522000030A9DED040AD2ED010A30EE600A84ED16
:10523000040A9DED050AD2ED020A30EE600A84ED03
:10524000050A81ED0C0A03D0DFED060AFBF7D2FB5D
:105250000DB030BD0C3700240AD7A33C5000002409
:10526000000000000BD7A33B10B504462DED088BC2
:1052700084B06846FFF72AFFDDED020AF8EE009AD7
:10528000B0EE009A20EEA90A9DED012AB7EE00AA21
:1052900020EE201A22EE092A9DED030A60EE091A7B
:1052A00062EE200A9DED002A01EEC01A22EE092AC4
:1052B00042EE000A31EE0A1AB7EEC11AB7EEE00A62
:1052C00003F0DEFA9FED298B9FED2ABB20EE080B41
:1052D00080EE0B1BB7EEC10B84ED000A9DED010AB9
:1052E000DDED030A9DED021A20EE290A20EE200AC8
:1052F000DDED000A60EE890A00EE810AB7EEC00A11
:1053000003F0BAF820EE080B80EE0B1BB7EEC10BD2
:1053100084ED010A9DED010A9DED021A9DED032A1F
:1053200060EE290A60EE801A61EE090A40EEC11AA9
:1053300060EE820A9DED002A22EE092A31EE8A1AD9
:1053400042EE000AB7EEC11AB7EEE00A03F098FA8F
:1053500020EE080B9FED091B80EE012BB7EEC20B70
:1053600084ED020A04B0BDEC088B10BD0000000003
:105370000080664000000060FB2109C00000006062
:10538000FB21094001221146104610B506F08CF9A8
:1053900020B1BDE810400DA003F036B80F48B7EEBD
:1053A000000A104980ED060A9FED0D0A80ED070AFC
:1053B00080ED080A80ED090A80ED030A80ED040AF9
:1053C00080ED050A09688162C16210BD494D552012
:1053D0004552524F5221210D0A0000005000002476
:1053E00000000000000000241CB5002102200B4634
:1053F000CDE90001C201044801A107F0A3FB1CBDD7
:105400004B65795363616E0079BE000801213B4A08
:10541000084610B505F05CFB394C0021374A1032C4
:10542000E063102005F054FB344A01212064084653
:10543000183A05F021FB0022A0634021052007F067
:1054400000F9002220604021052007F0FAF8002230
:1054500060604021052007F0F4F8A0600021294A8F
:10546000294805F085FB274A0021E06027482432BF
:1054700005F07EFB234A002120612548483205F0D3
:1054800077FB204A0021606122486C3205F070FBF6
:105490001C4A0021A0612048903205F069FB194A9E
:1054A0000021E0611D48B43205F062FB134A00217F
:1054B00020621B48CC3A05F05BFB104A0021606279
:1054C0001848A83A05F054FB0C4A0021A06216487F
:1054D000843A05F04DFB094A0021E0621348603A26
:1054E00005F046FB054A0021206311483C3A05F0CF
:1054F0003FFB6063BDE81040FFF776BF54DD000856
:1055000008000024B0DB0008017300088D72000859
:105510009573000855720008C9720008F7720008F8
:10552000C172000871730008B57300083572000875
:105530001D7300082DE9F04F87B014216846FAF773
:1055400077FF7848016841F010010160016801F0BF
:1055500010010591016841F004010160016801F04A
:1055600004010591016841F080010160016801F0CA
:1055700080010591016841F001010160016801F0BD
:1055800001010591016841F002010160016801F02B
:1055900002010591016841F00801016000680022E4
:1055A0009B2100F0080005905F48FBF734FFDFF80F
:1055B0007C91002243F239014846FBF72CFFDFF8CB
:1055C00070A100224FF482715046FBF724FFDFF8F0
:1055D00064B1002240F203415846FBF71CFF5248D9
:1055E00001224FF4D441FBF716FF5348002244F246
:1055F0005841FBF710FF0125694602268820002448
:10560000CDE900054848CDE90246FBF709FE03272E
:1056100046F61020CDE9000543486946CDE902472A
:10562000FBF7FEFD38030090CDE90154694648467A
:105630000394FBF7F5FD39206946CDE90005CDE976
:1056400002464846FBF7ECFD04206946CDE900051B
:10565000CDE902475046FBF7E3FD40F201406946C1
:10566000CDE90005CDE902475846FBF7D9FDCDE964
:105670000065CDE9024669465846FBF7D1FD4FF477
:105680008068CDF80080039669462B48CDE9015427
:10569000FBF7C6FDA8036946CDE900052648CDE91C
:1056A0000247FBF7BDFDE80369468DE8310022485B
:1056B000FBF7B6FD380269468DE831004846FBF736
:1056C000AFFD28020090CDE901546946504603948D
:1056D000FBF7A6FDCDF800806946CDE901455046AF
:1056E000FBF79EFD58200090CDE901541248694611
:1056F0000394FBF795FD202069468DE8310058465C
:10570000FBF78EFD00976946CDE9015406480394E6
:10571000FBF786FD0021E806FEF77CF907B0BDE83F
:10572000F08F0000E04402580010025800080258B0
:105730000000025800040258000C02580E480122D2
:105740000C4910B5016002214160202181601021C7
:10575000C160162101610021C0E90512C161016229
:10576000FCF7E6F8002803D0BDE81040FBF74FBA7D
:1057700010BD0000005000526C55002415484FF039
:105780000052134910B501604FF480014160491186
:1057900081600721C16000210161C0E90512C0E9F3
:1057A0000721416252008162C162C0E90D21C163DB
:1057B000016441648164C164016541658165FDF7EF
:1057C00005FD002803D0BDE81040FBF720BA10BD4E
:1057D00000380040105E012416480722144910B515
:1057E00001604FF4800141600021C0E902124FF0D6
:1057F000007202615210426192008261D200C0E9DF
:105800000721416252008162C162C0E90D21C1637A
:10581000016441648164C164016541658165FDF78E
:10582000D5FC002803D0BDE81040FBF7F0B910BD4F
:1058300000340140985E012410B588B01C216846F0
:10584000FAF7F6FD144800241249C0E900144FF697
:10585000FF71C0E9024104618461FEF759F908B1A2
:10586000FBF7D5F90C48FEF7AEFC08B1FBF7CFF912
:1058700060206946CDE900040748002202940494A0
:10588000FEF70FFC08B1FBF7C2F90348FEF7DEFB99
:1058900008B010BD001C00409C60012410B58CB005
:1058A00024216846FAF7C4FD154800244FF08041D2
:1058B00009940A940B94C0E90014611EC0E90241E6
:1058C0000461694684610120CDE90004CDE9020448
:1058D0000494CDE905400A4807940894FEF7BAF904
:1058E00008B1FBF794F9064809A909940B94FEF74F
:1058F000BDF8002801D0FBF78AF90CB010BD0000FC
:10590000205F012410B58CB024216846FAF790FD81
:1059100016480024144909940A940B94C0E9001411
:105920004FF6FF71C0E902410461694684610120BC
:10593000CDE90004CDE902040494CDE905400B480B
:1059400007940894FEF786F908B1FBF760F9074859
:1059500009A909940B94FEF789F8002801D0FBF7F8
:1059600056F90CB010BD0000000400406C5F01242B
:1059700010B58CB024216846FAF75AFD1648002469
:10598000144909940A940B94C0E900144FF6FF716E
:10599000C0E902410461694684610120CDE9000447
:1059A000CDE902040494CDE905400B48079408941E
:1059B000FEF750F908B1FBF72AF9074809A909943D
:1059C0000B94FEF753F8002801D0FBF720F90CB038
:1059D00010BD000000080040B85F012410B58CB075
:1059E00024216846FAF724FD154800241349099438
:1059F0000A940B94C0E90014611EC0E902410461DD
:105A0000694684610120CDE90004CDE902040494D3
:105A1000CDE905400A4807940894FEF71BF908B140
:105A2000FBF7F5F8064809A909940B94FEF71EF850
:105A3000002801D0FBF7EBF80CB010BD000C0040C3
:105A4000046001243EB50F4800240D4900940194E0
:105A500002940160EF21C0E9011484610921C16051
:105A6000FEF756F808B1FBF7D2F8064869460094ED
:105A70000294FDF7FBFF002801D0FBF7C8F83EBDFC
:105A8000001000405060012418480C22164910B53F
:105A900001604FF4E131416000218160C160C0E9E3
:105AA00004128161C161016241628162FEF78AFE76
:105AB00008B1FBF7ACF80D480021FEF78EFC08B1E9
:105AC000FBF7A5F809480021FEF761FC08B1FBF7D8
:105AD0009EF80648FEF73AFC002803D0BDE81040C7
